{
  "_format": "hh-sol-artifact-1",
  "contractName": "BonkeyFactory",
  "sourceName": "contracts/BonkeyFactory.sol",
  "abi": [
    {
      "anonymous": false,
      "inputs": [
        {
          "indexed": true,
          "internalType": "address",
          "name": "token0",
          "type": "address"
        },
        {
          "indexed": true,
          "internalType": "address",
          "name": "token1",
          "type": "address"
        },
        {
          "indexed": false,
          "internalType": "address",
          "name": "pair",
          "type": "address"
        },
        {
          "indexed": false,
          "internalType": "uint256",
          "name": "",
          "type": "uint256"
        }
      ],
      "name": "PairCreated",
      "type": "event"
    },
    {
      "anonymous": false,
      "inputs": [
        {
          "indexed": true,
          "internalType": "address",
          "name": "token0",
          "type": "address"
        },
        {
          "indexed": true,
          "internalType": "address",
          "name": "token1",
          "type": "address"
        },
        {
          "indexed": false,
          "internalType": "address",
          "name": "project",
          "type": "address"
        },
        {
          "indexed": false,
          "internalType": "uint256",
          "name": "",
          "type": "uint256"
        }
      ],
      "name": "ProjectCreated",
      "type": "event"
    },
    {
      "constant": true,
      "inputs": [],
      "name": "INIT_CODE_PAIR_HASH",
      "outputs": [
        {
          "internalType": "bytes32",
          "name": "",
          "type": "bytes32"
        }
      ],
      "payable": false,
      "stateMutability": "view",
      "type": "function"
    },
    {
      "constant": true,
      "inputs": [
        {
          "internalType": "uint256",
          "name": "",
          "type": "uint256"
        }
      ],
      "name": "allPairs",
      "outputs": [
        {
          "internalType": "address",
          "name": "",
          "type": "address"
        }
      ],
      "payable": false,
      "stateMutability": "view",
      "type": "function"
    },
    {
      "constant": true,
      "inputs": [],
      "name": "allPairsLength",
      "outputs": [
        {
          "internalType": "uint256",
          "name": "",
          "type": "uint256"
        }
      ],
      "payable": false,
      "stateMutability": "view",
      "type": "function"
    },
    {
      "constant": false,
      "inputs": [
        {
          "internalType": "address",
          "name": "tokenA",
          "type": "address"
        },
        {
          "internalType": "address",
          "name": "tokenB",
          "type": "address"
        },
        {
          "internalType": "uint256",
          "name": "price",
          "type": "uint256"
        },
        {
          "internalType": "uint256",
          "name": "min_rate_to_pass_proposal",
          "type": "uint256"
        },
        {
          "internalType": "uint256",
          "name": "min_rate_to_withdraw",
          "type": "uint256"
        },
        {
          "internalType": "uint256",
          "name": "commission_rate",
          "type": "uint256"
        },
        {
          "internalType": "string",
          "name": "project_meta",
          "type": "string"
        }
      ],
      "name": "createProject",
      "outputs": [
        {
          "internalType": "address",
          "name": "pair",
          "type": "address"
        }
      ],
      "payable": false,
      "stateMutability": "nonpayable",
      "type": "function"
    },
    {
      "constant": true,
      "inputs": [],
      "name": "feeTo",
      "outputs": [
        {
          "internalType": "address",
          "name": "",
          "type": "address"
        }
      ],
      "payable": false,
      "stateMutability": "view",
      "type": "function"
    },
    {
      "constant": true,
      "inputs": [],
      "name": "feeToSetter",
      "outputs": [
        {
          "internalType": "address",
          "name": "",
          "type": "address"
        }
      ],
      "payable": false,
      "stateMutability": "view",
      "type": "function"
    },
    {
      "constant": true,
      "inputs": [
        {
          "internalType": "address",
          "name": "",
          "type": "address"
        },
        {
          "internalType": "address",
          "name": "",
          "type": "address"
        }
      ],
      "name": "getPair",
      "outputs": [
        {
          "internalType": "address",
          "name": "",
          "type": "address"
        }
      ],
      "payable": false,
      "stateMutability": "view",
      "type": "function"
    },
    {
      "constant": false,
      "inputs": [
        {
          "internalType": "address",
          "name": "_feeTo",
          "type": "address"
        }
      ],
      "name": "setFeeTo",
      "outputs": [],
      "payable": false,
      "stateMutability": "nonpayable",
      "type": "function"
    },
    {
      "constant": false,
      "inputs": [],
      "name": "setFeeToSetter",
      "outputs": [],
      "payable": false,
      "stateMutability": "nonpayable",
      "type": "function"
    },
    {
      "constant": false,
      "inputs": [
        {
          "internalType": "address",
          "name": "_feeToSetter",
          "type": "address"
        }
      ],
      "name": "setFeeToSetter",
      "outputs": [],
      "payable": false,
      "stateMutability": "nonpayable",
      "type": "function"
    }
  ],
  "bytecode": "0x608060405234801561001057600080fd5b50613de1806100206000396000f3fe608060405234801561001057600080fd5b50600436106100be5760003560e01c80635855a25a11610076578063a2e74af61161005b578063a2e74af6146101d9578063e6a43905146101ff578063f46901ed1461022d576100be565b80635855a25a146101c757806361bb1b21146101cf576100be565b80630cee1965116100a75780630cee1965146100ef5780631e3dd18b14610190578063574f2ba3146101ad576100be565b8063017e7e58146100c3578063094b7415146100e7575b600080fd5b6100cb610253565b604080516001600160a01b039092168252519081900360200190f35b6100cb610262565b6100cb600480360360e081101561010557600080fd5b6001600160a01b03823581169260208101359091169160408201359160608101359160808201359160a08101359181019060e0810160c082013564010000000081111561015157600080fd5b82018360208201111561016357600080fd5b8035906020019184600183028401116401000000008311171561018557600080fd5b509092509050610271565b6100cb600480360360208110156101a657600080fd5b5035610694565b6101b56106bb565b60408051918252519081900360200190f35b6101b56106c1565b6101d7610754565b005b6101d7600480360360208110156101ef57600080fd5b50356001600160a01b0316610775565b6100cb6004803603604081101561021557600080fd5b506001600160a01b0381358116916020013516610803565b6101d76004803603602081101561024357600080fd5b50356001600160a01b0316610829565b6000546001600160a01b031681565b6001546001600160a01b031681565b6000876001600160a01b0316896001600160a01b031614156102c45760405162461bcd60e51b8152600401808060200182810382526022815260200180613d8b6022913960400191505060405180910390fd5b6001600160a01b03891661031f576040805162461bcd60e51b815260206004820152601b60248201527f426f6e6b6579466163746f72793a205a45524f5f414444524553530000000000604482015290519081900360640190fd5b6001600160a01b03881661037a576040805162461bcd60e51b815260206004820152601b60248201527f426f6e6b6579466163746f72793a205a45524f5f414444524553530000000000604482015290519081900360640190fd5b6001600160a01b0389811660009081526002602090815260408083208c8516845290915290205416156103f4576040805162461bcd60e51b815260206004820152601a60248201527f426f6e6b6579466163746f72793a20504149525f455849535453000000000000604482015290519081900360640190fd5b606060405180602001610406906108b7565b6020820181038252601f19601f82011660405250905060008a8a60405160200180836001600160a01b03166001600160a01b031660601b8152601401826001600160a01b03166001600160a01b031660601b815260140192505050604051602081830303815290604052805190602001209050808251602084016000f59250826001600160a01b0316630810e8308c8c8c8c8c8c8c8c6040518963ffffffff1660e01b815260040180896001600160a01b03166001600160a01b03168152602001886001600160a01b03166001600160a01b03168152602001878152602001868152602001858152602001848152602001806020018281038252848482818152602001925080828437600081840152601f19601f8201169050808301925050509950505050505050505050600060405180830381600087803b15801561054b57600080fd5b505af115801561055f573d6000803e3d6000fd5b5050505082600260008d6001600160a01b03166001600160a01b0316815260200190815260200160002060008c6001600160a01b03166001600160a01b0316815260200190815260200160002060006101000a8154816001600160a01b0302191690836001600160a01b0316021790555060038390806001815401808255809150509060018203906000526020600020016000909192909190916101000a8154816001600160a01b0302191690836001600160a01b0316021790555050896001600160a01b03168b6001600160a01b03167f0d3648bd0f6ba80134a33ba9275ac585d9d315f0ad8355cddefde31afa28d0e98560038054905060405180836001600160a01b03166001600160a01b031681526020018281526020019250505060405180910390a3505098975050505050505050565b600381815481106106a157fe5b6000918252602090912001546001600160a01b0316905081565b60035490565b6040516106d0602082016108b7565b6020820181038252601f19601f820116604052506040516020018082805190602001908083835b602083106107165780518252601f1990920191602091820191016106f7565b6001836020036101000a0380198251168184511680821785525050505050509050019150506040516020818303038152906040528051906020012081565b6001805473ffffffffffffffffffffffffffffffffffffffff191633179055565b6001546001600160a01b031633146107d4576040805162461bcd60e51b815260206004820152601860248201527f426f6e6b6579466163746f72793a20464f5242494444454e0000000000000000604482015290519081900360640190fd5b6001805473ffffffffffffffffffffffffffffffffffffffff19166001600160a01b0392909216919091179055565b60026020908152600092835260408084209091529082529020546001600160a01b031681565b6001546001600160a01b03163314610888576040805162461bcd60e51b815260206004820152601860248201527f426f6e6b6579466163746f72793a20464f5242494444454e0000000000000000604482015290519081900360640190fd5b6000805473ffffffffffffffffffffffffffffffffffffffff19166001600160a01b0392909216919091179055565b6134c6806108c58339019056fe60c0604052600460808190526376302e3160e01b60a09081526200002791601291906200003c565b503480156200003557600080fd5b50620000e1565b828054600181600116156101000203166002900490600052602060002090601f016020900481019282601f106200007f57805160ff1916838001178555620000af565b82800160010185558215620000af579182015b82811115620000af57825182559160200191906001019062000092565b50620000bd929150620000c1565b5090565b620000de91905b80821115620000bd5760008155600101620000c8565b90565b6133d580620000f16000396000f3fe608060405234801561001057600080fd5b50600436106101da5760003560e01c8063616691c511610104578063a788da7b116100a2578063ea991cd511610071578063ea991cd5146108eb578063ec9c10941461096e578063f0329f6b146109ea578063fc022f5f146109f2576101da565b8063a788da7b14610856578063c690d1b01461085e578063d37232b2146108db578063e1847ebd146108e3576101da565b80637adaf409116100de5780637adaf4091461073757806390d0b59e146107ca57806390f4ebf6146107d257806391702c76146107da576101da565b8063616691c5146106fb578063689b15fe146107035780637976d3651461072f576101da565b806332053a7a1161017c57806349fc3b1e1161014b57806349fc3b1e1461063557806352cc1703146106ac57806355ec494b146106eb5780635d44be70146106f3576101da565b806332053a7a146105a55780633f66b1c5146105de578063441a3e70146105e657806347e7ef2414610609576101da565b806316cb3b20116101b857806316cb3b20146104965780631a03f3df1461050d578063235b6ea1146105275780632aa77c4c1461052f576101da565b80630810e830146101df5780630a4948401461028257806310fea8a014610362575b600080fd5b610280600480360360e08110156101f557600080fd5b6001600160a01b03823581169260208101359091169160408201359160608101359160808201359160a08101359181019060e0810160c082013564010000000081111561024157600080fd5b82018360208201111561025357600080fd5b8035906020019184600183028401116401000000008311171561027557600080fd5b5090925090506109fa565b005b61029f6004803603602081101561029857600080fd5b5035610bcf565b60405180806020018b81526020018a151515158152602001891515151581526020018815151515815260200187815260200186815260200185815260200184815260200183815260200182810382528c818151815260200191508051906020019080838360005b8381101561031e578181015183820152602001610306565b50505050905090810190601f16801561034b5780820380516001836020036101000a031916815260200191505b509b50505050505050505050505060405180910390f35b6103946004803603606081101561037857600080fd5b50803590602081013590604001356001600160a01b0316610cae565b6040518087151515158152602001861515151581526020018581526020018481526020018060200180602001838103835285818151815260200191508051906020019080838360005b838110156103f55781810151838201526020016103dd565b50505050905090810190601f1680156104225780820380516001836020036101000a031916815260200191505b50838103825284518152845160209182019186019080838360005b8381101561045557818101518382015260200161043d565b50505050905090810190601f1680156104825780820380516001836020036101000a031916815260200191505b509850505050505050505060405180910390f35b610280600480360360408110156104ac57600080fd5b813591908101906040810160208201356401000000008111156104ce57600080fd5b8201836020820111156104e057600080fd5b8035906020019184600183028401116401000000008311171561050257600080fd5b509092509050610e5e565b6105156110b1565b60408051918252519081900360200190f35b6105156110b7565b6102806004803603606081101561054557600080fd5b81019060208101813564010000000081111561056057600080fd5b82018360208201111561057257600080fd5b8035906020019184600183028401116401000000008311171561059457600080fd5b9193509150803590602001356110bd565b6105c2600480360360208110156105bb57600080fd5b50356111e3565b604080516001600160a01b039092168252519081900360200190f35b6105c261120a565b610280600480360360408110156105fc57600080fd5b5080359060200135611219565b6102806004803603604081101561061f57600080fd5b506001600160a01b03813516906020013561152d565b6102806004803603604081101561064b57600080fd5b8135919081019060408101602082013564010000000081111561066d57600080fd5b82018360208201111561067f57600080fd5b803590602001918460018302840111640100000000831117156106a157600080fd5b5090925090506117e4565b6106d2600480360360208110156106c257600080fd5b50356001600160a01b0316611a37565b6040805192835260208301919091528051918290030190f35b610515611a50565b610515611a56565b6105c2611a5c565b6103946004803603604081101561071957600080fd5b50803590602001356001600160a01b0316611a6b565b610515611c0e565b61075a6004803603604081101561074d57600080fd5b5080359060200135611c14565b604080516001600160a01b03891681528615159181019190915284151560608201526080810184905260a0810183905260c0810182905260e0602080830182815289519284019290925288516101008401918a01908083836000831561045557818101518382015260200161043d565b610515611d1d565b610515611d23565b610280600480360360608110156107f057600080fd5b81359160208101359181019060608101604082013564010000000081111561081757600080fd5b82018360208201111561082957600080fd5b8035906020019184600183028401116401000000008311171561084b57600080fd5b509092509050611d29565b61051561203b565b610866612041565b6040805160208082528351818301528351919283929083019185019080838360005b838110156108a0578181015183820152602001610888565b50505050905090810190601f1680156108cd5780820380516001836020036101000a031916815260200191505b509250505060405180910390f35b6105156120cf565b6105156120d5565b6102806004803603608081101561090157600080fd5b8135916020810135916040820135919081019060808101606082013564010000000081111561092f57600080fd5b82018360208201111561094157600080fd5b8035906020019184600183028401116401000000008311171561096357600080fd5b5090925090506120db565b6102806004803603606081101561098457600080fd5b8135916020810135918101906060810160408201356401000000008111156109ab57600080fd5b8201836020820111156109bd57600080fd5b803590602001918460018302840111640100000000831117156109df57600080fd5b50909250905061227f565b6105c2612591565b6105156125a0565b6000546001600160a01b031615610a58576040805162461bcd60e51b815260206004820152601a60248201527f50726f6a65637420616c726561647920696e697469617465642e000000000000604482015290519081900360640190fd5b670de0b6b3a76400008511158015610a785750670de0b6b3a76400008411155b8015610a8c5750670de0b6b3a76400008311155b610add576040805162461bcd60e51b815260206004820152601360248201527f726174652073686f756c64206265203c3d203100000000000000000000000000604482015290519081900360640190fd5b600080543373ffffffffffffffffffffffffffffffffffffffff19918216179091556001805482166001600160a01b038b811691909117909155600280549092169089161790556003869055600485905560058490556007839055610b44600c83836131de565b506000600a819055600b556706f05b59d3b20000600655610b636125a6565b600d55604080516001600160a01b03808b16825289166020820152808201889052606081018790526080810186905260a0810185905290517f9cf5961a85c7f8e7a338e8a65f5b28ec17985fa771ab0c7bb93eb86b76cfec589181900360c00190a15050505050505050565b60116020908152600091825260409182902080548351601f60026000196101006001861615020190931692909204918201849004840281018401909452808452909291839190830182828015610c665780601f10610c3b57610100808354040283529160200191610c66565b820191906000526020600020905b815481529060010190602001808311610c4957829003601f168201915b50505050600183015460028401546009850154600a860154600b870154600c880154600d909801549697949660ff80861697506101008604811696620100009096041694908a565b6000838152601160209081526040808320858452600e0182528083206001600160a01b0385168452600381018352818420546004820184528285205460058301855283862054600684018652848720546007850187528588206008860188528689208154885160026101006001841615026000190190921691909104601f81018b90048b0282018b019099528881528a998a998a996060998a99919860ff91821698919092169691959094919390928491830182828015610db05780601f10610d8557610100808354040283529160200191610db0565b820191906000526020600020905b815481529060010190602001808311610d9357829003601f168201915b5050845460408051602060026001851615610100026000190190941693909304601f810184900484028201840190925281815295975086945092508401905082828015610e3e5780601f10610e1357610100808354040283529160200191610e3e565b820191906000526020600020905b815481529060010190602001808311610e2157829003601f168201915b505050505090509650965096509650965096505093975093979195509350565b826010548110610e9f5760405162461bcd60e51b815260040180806020018281038252602681526020018061332f6026913960400191505060405180910390fd5b610ea8816125ab565b506000818152601160205260409020600281015460ff16158015610ed657506002810154610100900460ff16155b610f115760405162461bcd60e51b81526004018080602001828103825260218152602001806133806021913960400191505060405180910390fd5b33600090815260038201602052604090205460ff1615610f78576040805162461bcd60e51b815260206004820152601760248201527f616c726561647920617070726f76656420627920796f75000000000000000000604482015290519081900360640190fd5b33600090815260048201602052604090205460ff1615610fdf576040805162461bcd60e51b815260206004820152601760248201527f616c72656164792072656a656374656420627920796f75000000000000000000604482015290519081900360640190fd5b6000858152601160209081526040808320338452600381018352818420805460ff191660011790556007810190925290912061101c9086866131de565b506000611028336125f6565b33600090815260058401602052604090208190556009830154909150611054908263ffffffff61263b16565b60098301556110628761269e565b151560011415611075576110758761271d565b6040805188815290517f38f09256e3041474c7da0c3b395eb26f839ed1e6f79bc56edb004a7ea8e7959d9181900360200190a150505050505050565b600b5481565b60035481565b80600d5481116110fe5760405162461bcd60e51b81526004018080602001828103825260218152602001806132ed6021913960400191505060405180910390fd5b60005b60105481101561111d57611114816125ab565b50600101611101565b50600954831061115e5760405162461bcd60e51b815260040180806020018281038252602681526020018061329d6026913960400191505060405180910390fd5b601054600090815260116020526040902061117a8187876131de565b506001808201859055600c820184905560105461119c9163ffffffff61263b16565b6010819055604080519182526020820186905280517fe6aa0ab9b64da83aa518c7c2647344318a7ee97902d35125f40be55e2ce2176e9281900390910190a1505050505050565b600e81815481106111f057fe5b6000918252602090912001546001600160a01b0316905081565b6002546001600160a01b031681565b60005b6010548110156112385761122f816125ab565b5060010161121c565b5060085460009061124f908463ffffffff6127e416565b90506000611268836009546127e490919063ffffffff16565b9050600a54821015801561127e5750600b548110155b6112cf576040805162461bcd60e51b815260206004820152601e60248201527f496e73756666696369656e742066756e6420666f722077697468647261770000604482015290519081900360640190fd5b60006112da82612826565b905080831015611331576040805162461bcd60e51b815260206004820152601c60248201527f766f74652062616c616e636520686173206265656e2062726f6b656e00000000604482015290519081900360640190fd5b336000908152600f6020526040902080548611801590611355575080600101548511155b6113905760405162461bcd60e51b81526004018080602001828103825260268152602001806132776026913960400191505060405180910390fd5b6001546040805163a9059cbb60e01b81523360048201526024810189905290516001600160a01b039092169163a9059cbb916044808201926020929091908290030181600087803b1580156113e457600080fd5b505af11580156113f8573d6000803e3d6000fd5b505050506040513d602081101561140e57600080fd5b50506002546040805163a9059cbb60e01b81523360048201526024810188905290516001600160a01b039092169163a9059cbb916044808201926020929091908290030181600087803b15801561146457600080fd5b505af1158015611478573d6000803e3d6000fd5b505050506040513d602081101561148e57600080fd5b50506008546114a3908763ffffffff6127e416565b6008556009546114b9908663ffffffff6127e416565b60095580546114ce908763ffffffff6127e416565b815560018101546114e5908663ffffffff6127e416565b6001820155604080518781526020810187905281517f56ca301a9219608c91e7bcee90e083c19671d2cdcc96752c7af291cee5f9c8c8929181900390910190a1505050505050565b6001546001600160a01b038381169116148061155657506002546001600160a01b038381169116145b6115a7576040805162461bcd60e51b815260206004820152601260248201527f746f6b656e20756e7265636f676e697a65640000000000000000000000000000604482015290519081900360640190fd5b604080517f23b872dd0000000000000000000000000000000000000000000000000000000081523360048201523060248201526044810183905290516001600160a01b038416916323b872dd9160648083019260209291908290030181600087803b15801561161557600080fd5b505af1158015611629573d6000803e3d6000fd5b505050506040513d602081101561163f57600080fd5b5050336000908152600f60205260409020805415801561166157506001810154155b156116b657600e80546001810182556000919091527fbb7b4a454dc3493923482f07822329ed19e8244eff582cc204f8554c3620c3fd01805473ffffffffffffffffffffffffffffffffffffffff1916331790555b6001546001600160a01b03848116911614156116fb5780546116de908363ffffffff61263b16565b81556008546116f3908363ffffffff61263b16565b60085561179b565b600061170683612826565b90506000611715600954612826565b60085490915061172b838363ffffffff61263b16565b11156117685760405162461bcd60e51b815260040180806020018281038252602b815260200180613355602b913960400191505060405180910390fd5b600183015461177d908563ffffffff61263b16565b6001840155600954611795908563ffffffff61263b16565b60095550505b604080516001600160a01b03851681526020810184905281517fe1fffcc4923d04b559f4d29a8bfc6cda04eb5b0d3c460751c2402c5c5cc9109c929181900390910190a1505050565b8260105481106118255760405162461bcd60e51b815260040180806020018281038252602681526020018061332f6026913960400191505060405180910390fd5b61182e816125ab565b506000818152601160205260409020600281015460ff1615801561185c57506002810154610100900460ff16155b6118975760405162461bcd60e51b81526004018080602001828103825260218152602001806133806021913960400191505060405180910390fd5b33600090815260038201602052604090205460ff16156118fe576040805162461bcd60e51b815260206004820152601760248201527f616c726561647920617070726f76656420627920796f75000000000000000000604482015290519081900360640190fd5b33600090815260048201602052604090205460ff1615611965576040805162461bcd60e51b815260206004820152601760248201527f616c72656164792072656a656374656420627920796f75000000000000000000604482015290519081900360640190fd5b6000858152601160209081526040808320338452600481018352818420805460ff19166001179055600881019092529091206119a29086866131de565b5060006119ae336125f6565b3360009081526006840160205260409020819055600a8301549091506119da908263ffffffff61263b16565b600a8301556119e887612855565b1515600114156119fb576119fb876128e7565b6040805188815290517f0e37f9e6bfc375c19a26e26e6509a15f42c0bf9b6912c3f3334e92a7b2937b159181900360200190a150505050505050565b600f602052600090815260409020805460019091015482565b60075481565b600d5481565b6001546001600160a01b031681565b60008281526011602090815260408083206001600160a01b0385168452600381018352818420546004820184528285205460058301855283862054600684018652848720546007850187528588206008860188528689208154885160026101006001841615026000190190921691909104601f81018b90048b0282018b019099528881528a998a998a996060998a99919860ff91821698919092169691959094919390928491830182828015611b625780601f10611b3757610100808354040283529160200191611b62565b820191906000526020600020905b815481529060010190602001808311611b4557829003601f168201915b5050845460408051602060026001851615610100026000190190941693909304601f810184900484028201840190925281815295975086945092508401905082828015611bf05780601f10611bc557610100808354040283529160200191611bf0565b820191906000526020600020905b815481529060010190602001808311611bd357829003601f168201915b50505050509050965096509650965096509650509295509295509295565b60055481565b6000828152601160209081526040808320848452600e01825280832080546002808301546009840154600a850154600b860154600180880180548a516101009382161584026000190190911697909704601f81018c90048c0288018c01909a5289875260609a8c9a8b9a8b9a8b9a8b9a92996001600160a01b0390921698959760ff8085169890940490931695919491939091889190830182828015611cfb5780601f10611cd057610100808354040283529160200191611cfb565b820191906000526020600020905b815481529060010190602001808311611cde57829003601f168201915b5050505050955097509750975097509750975097505092959891949750929550565b600a5481565b60045481565b83836010548210611d81576040805162461bcd60e51b815260206004820152601860248201527f70726f706f73616c20646f6573206e6f74206578697374730000000000000000604482015290519081900360640190fd5b6000828152601160205260409020600281015460ff1615156001148015611db35750600281015462010000900460ff16155b611e04576040805162461bcd60e51b815260206004820152601260248201527f70726f706f73616c2066696e616c697a65640000000000000000000000000000604482015290519081900360640190fd5b6000828152600e820160209081526040808320338452600381019092529091205460ff1615611e7a576040805162461bcd60e51b815260206004820152601760248201527f616c726561647920617070726f76656420627920796f75000000000000000000604482015290519081900360640190fd5b33600090815260048201602052604090205460ff1615611ee1576040805162461bcd60e51b815260206004820152601760248201527f616c72656164792072656a656374656420627920796f75000000000000000000604482015290519081900360640190fd5b600281015460ff16158015611f0057506002810154610100900460ff16155b611f51576040805162461bcd60e51b815260206004820152601160248201527f726571756573742066696e616c697a6564000000000000000000000000000000604482015290519081900360640190fd5b60008881526011602090815260408083208a8452600e018252808320338452600481018352818420805460ff1916600117905560088101909252909120611f999088886131de565b506000611fa5336125f6565b3360009081526006840160205260409020819055600a830154909150611fd1908263ffffffff61263b16565b600a830155611fe08a8a612968565b151560011415611ff457611ff48a8a612a09565b604080518b8152602081018b905281517f775a99a23304d411fc2b1a8eeb5d5fb63131e1eed97d0fe491aa4d52184b58f9929181900390910190a150505050505050505050565b60095481565b600c805460408051602060026001851615610100026000190190941693909304601f810184900484028201840190925281815292918301828280156120c75780601f1061209c576101008083540402835291602001916120c7565b820191906000526020600020905b8154815290600101906020018083116120aa57829003601f168201915b505050505081565b60085481565b60065481565b846010548110612132576040805162461bcd60e51b815260206004820152601860248201527f50726f706f73616c20646f6573206e6f74206578697374210000000000000000604482015290519081900360640190fd5b61213b816125ab565b506000818152601160205260409020600281015460ff161515600114801561216e5750600281015462010000900460ff16155b6121a95760405162461bcd60e51b815260040180806020018281038252602a8152602001806132c3602a913960400191505060405180910390fd5b84600d5481116121ea5760405162461bcd60e51b81526004018080602001828103825260218152602001806132ed6021913960400191505060405180910390fd5b60008881526011602090815260408083208a8452600e0190915290206122146001820187876131de565b50805473ffffffffffffffffffffffffffffffffffffffff191633178155600c8101879055604080518a8152602081018a905281517f3d2e9116ecfbb0dcbbd0c5cbdb8e00565b81c852f3ae02b4c1fc5d484236b48a929181900390910190a1505050505050505050565b838360105482106122d7576040805162461bcd60e51b815260206004820152601860248201527f70726f706f73616c20646f6573206e6f74206578697374730000000000000000604482015290519081900360640190fd5b6000828152601160205260409020600281015460ff16151560011480156123095750600281015462010000900460ff16155b61235a576040805162461bcd60e51b815260206004820152601260248201527f70726f706f73616c2066696e616c697a65640000000000000000000000000000604482015290519081900360640190fd5b6000828152600e820160209081526040808320338452600381019092529091205460ff16156123d0576040805162461bcd60e51b815260206004820152601760248201527f616c726561647920617070726f76656420627920796f75000000000000000000604482015290519081900360640190fd5b33600090815260048201602052604090205460ff1615612437576040805162461bcd60e51b815260206004820152601760248201527f616c72656164792072656a656374656420627920796f75000000000000000000604482015290519081900360640190fd5b600281015460ff1615801561245657506002810154610100900460ff16155b6124a7576040805162461bcd60e51b815260206004820152601160248201527f726571756573742066696e616c697a6564000000000000000000000000000000604482015290519081900360640190fd5b60008881526011602090815260408083208a8452600e018252808320338452600381018352818420805460ff19166001179055600781019092529091206124ef9088886131de565b5060006124fb336125f6565b33600090815260058401602052604090208190556009830154909150612527908263ffffffff61263b16565b60098301556125368a8a612aa1565b15156001141561254a5761254a8a8a612b23565b604080518b8152602081018b905281517f0af3c87cdae21fd9b8bc75f22c55707916745701dc21516dd93d31ebb858bb0a929181900390910190a150505050505050505050565b6000546001600160a01b031681565b60105481565b435b90565b60006125b68261269e565b1515600114156125d1576125c98261271d565b5060016125f1565b6125da82612855565b1515600114156125ed576125c9826128e7565b5060005b919050565b6001600160a01b0381166000908152600f6020526040812080546001820154839061262090612826565b9050612632828263ffffffff61263b16565b95945050505050565b600082820183811015612695576040805162461bcd60e51b815260206004820152601b60248201527f536166654d6174683a206164646974696f6e206f766572666c6f770000000000604482015290519081900360640190fd5b90505b92915050565b6000818152601160205260408120816126b5612fe1565b6009830154600454919250906126cb828461300b565b106126dc57600193505050506125f1565b6126e46125a6565b83600c015410801561270157506006546126fe828461300b565b10155b1561271257600193505050506125f1565b506000949350505050565b600081815260116020526040812060028101805460ff1916600117905560095490919061274990612826565b60085490915061275f908263ffffffff61263b16565b600b808401919091556001830154905461277e9163ffffffff61263b16565b600b55600182015460009061279290612826565b600a549091506127a8908263ffffffff61263b16565b600a556040805185815290517f28ec9e38ba73636ceb2f6c1574136f83bd46284a3c74734b711bf45e12f8d9299181900360200190a150505050565b600061269583836040518060400160405280601e81526020017f536166654d6174683a207375627472616374696f6e206f766572666c6f770000815250613029565b6000612698670de0b6b3a7640000612849600354856130c090919063ffffffff16565b9063ffffffff61311916565b60008181526011602052604081208161286c612fe1565b600a83015460098401546004549293509091670de0b6b3a764000003612892838561300b565b11156128a55760019450505050506125f1565b6128ad6125a6565b84600c01541080156128c957506006546128c7828561300b565b105b156128db5760019450505050506125f1565b50600095945050505050565b600081815260116020526040812060028101805461ff00191661010017905560095490919061291590612826565b60085490915061292b908263ffffffff61263b16565b600b8301556040805184815290517fd92fba445edb3153b571e6df782d7a66fd0ce668519273670820ee3a86da0ef49181900360200190a1505050565b6000828152601160209081526040808320848452600e0190915281208161298d612fe1565b600a83015460098401546005549293509091670de0b6b3a7640000036129b3838561300b565b11156129c6576001945050505050612698565b6129ce6125a6565b84600c01541080156129ea57506006546129e8828561300b565b105b156129fc576001945050505050612698565b5060009695505050505050565b6000828152601160209081526040808320848452600e01909152812060028101805461ff001916610100179055600954909190612a4590612826565b600854909150612a5b908263ffffffff61263b16565b600b830155604080518581526020810185905281517fa099e78478ae432876f0304a510a36b1191910aaf20cf582cd9dec451ea84620929181900390910190a150505050565b6000828152601160209081526040808320848452600e01909152812081612ac6612fe1565b600983015460055491925090612adc828461300b565b10612aed5760019350505050612698565b612af56125a6565b83600c0154108015612b125750600654612b0f828461300b565b10155b156128db5760019350505050612698565b60008281526011602052604081206001810154909190612b4290612826565b90506000826001015490506000612b6582600754670de0b6b3a76400000361315b565b90506000612b758460075461315b565b6000878152600e8701602090815260408083206001548154835163a9059cbb60e01b81526001600160a01b039182166004820152602481018890529351969750919591169363a9059cbb93604480850194919392918390030190829087803b158015612be057600080fd5b505af1158015612bf4573d6000803e3d6000fd5b505050506040513d6020811015612c0a57600080fd5b505060025481546040805163a9059cbb60e01b81526001600160a01b039283166004820152602481018790529051919092169163a9059cbb9160448083019260209291908290030181600087803b158015612c6457600080fd5b505af1158015612c78573d6000803e3d6000fd5b505050506040513d6020811015612c8e57600080fd5b50600090505b600e54811015612f33576000600f6000600e8481548110612cb157fe5b60009182526020808320909101546001600160a01b0316835282019290925260400181208054600854919350612ce69161300b565b90506000612cfa836001015460095461300b565b90508115612e0a576000612d108960075461315b565b90506000612d1e828561315b565b600254600e80549293506001600160a01b039091169163a9059cbb919089908110612d4557fe5b6000918252602080832090910154604080517fffffffff0000000000000000000000000000000000000000000000000000000060e087901b1681526001600160a01b039092166004830152602482018790525160448083019491928390030190829087803b158015612db657600080fd5b505af1158015612dca573d6000803e3d6000fd5b505050506040513d6020811015612de057600080fd5b5060009050612def8c8661315b565b8654909150612e04908263ffffffff6127e416565b86555050505b8015612f28576000612e288a600754670de0b6b3a76400000361315b565b90506000612e36828461315b565b600154600e80549293506001600160a01b039091169163a9059cbb919089908110612e5d57fe5b6000918252602080832090910154604080517fffffffff0000000000000000000000000000000000000000000000000000000060e087901b1681526001600160a01b039092166004830152602482018790525160448083019491928390030190829087803b158015612ece57600080fd5b505af1158015612ee2573d6000803e3d6000fd5b505050506040513d6020811015612ef857600080fd5b5060009050612f078b8561315b565b6001870154909150612f1f908263ffffffff6127e416565b60018701555050505b505050600101612c94565b506000612f41600954612826565b600854909150612f57908263ffffffff61263b16565b600b830155600854612f6f908763ffffffff6127e416565b600855600954612f85908663ffffffff6127e416565b60095560028701805462ff0000191662010000179055604080518a8152602081018a905281517fc8ef479acdbffd729d96117b951d1c3ee85d98ef42699aec806bc4f0b522461d929181900390910190a1505050505050505050565b600080612fef600954612826565b600854909150613005908263ffffffff61263b16565b91505090565b60006126958261284985670de0b6b3a764000063ffffffff6130c016565b600081848411156130b85760405162461bcd60e51b81526004018080602001828103825283818151815260200191508051906020019080838360005b8381101561307d578181015183820152602001613065565b50505050905090810190601f1680156130aa5780820380516001836020036101000a031916815260200191505b509250505060405180910390fd5b505050900390565b6000826130cf57506000612698565b828202828482816130dc57fe5b04146126955760405162461bcd60e51b815260040180806020018281038252602181526020018061330e6021913960400191505060405180910390fd5b600061269583836040518060400160405280601a81526020017f536166654d6174683a206469766973696f6e206279207a65726f000000000000815250613179565b6000612695670de0b6b3a7640000612849858563ffffffff6130c016565b600081836131c85760405162461bcd60e51b815260206004820181815283516024840152835190928392604490910191908501908083836000831561307d578181015183820152602001613065565b5060008385816131d457fe5b0495945050505050565b828054600181600116156101000203166002900490600052602060002090601f016020900481019282601f1061321f5782800160ff1982351617855561324c565b8280016001018555821561324c579182015b8281111561324c578235825591602001919060010190613231565b5061325892915061325c565b5090565b6125a891905b80821115613258576000815560010161326256fe596f7520646f6e2774206861766520656e6f7567682066756e6420746f207769746864726177596f752063616e206e6f742070726f706f7365206d6f7265207468616e20726573657276652150726f706f73616c206e6f7420617070726f766564206f7220616c72656164792072656c65617365642e646561646c696e652063616e206e6f74206265206c657373207468616e206e6f77536166654d6174683a206d756c7469706c69636174696f6e206f766572666c6f7743616e206e6f7420766f746520666f7220616e20756e657869737465642070726f706f73616c63616e206e6f7420696e76657374206d6f7265207468616e20736f7572636520746f6b656e2076616c756570726f706f73616c2063616e206e6f7420626520766f74656420616e796d6f7265a265627a7a72315820cf36a96daa735cf9977e7b82102951f51fda3a570df313aa5277f86956ac226264736f6c63430005100032426f6e6b6579466163746f72793a204944454e544943414c5f414444524553534553a265627a7a72315820106699e0d7a9ecf92b36fe469f3ad9ba27d767e552f116aebc98a546cba1c27c64736f6c63430005100032",
  "linkReferences": {},
  "deployedLinkReferences": {}
}