{
  "_format": "hh-sol-artifact-1",
  "contractName": "Project",
  "sourceName": "contracts/Project.sol",
  "abi": [
    {
      "anonymous": false,
      "inputs": [
        {
          "indexed": false,
          "internalType": "uint256",
          "name": "index",
          "type": "uint256"
        },
        {
          "indexed": false,
          "internalType": "uint256",
          "name": "idx",
          "type": "uint256"
        }
      ],
      "name": "ApprovePayment",
      "type": "event"
    },
    {
      "anonymous": false,
      "inputs": [
        {
          "indexed": false,
          "internalType": "uint256",
          "name": "index",
          "type": "uint256"
        }
      ],
      "name": "ApproveProposal",
      "type": "event"
    },
    {
      "anonymous": false,
      "inputs": [
        {
          "indexed": false,
          "internalType": "address",
          "name": "token",
          "type": "address"
        },
        {
          "indexed": false,
          "internalType": "uint256",
          "name": "amount",
          "type": "uint256"
        }
      ],
      "name": "Deposit",
      "type": "event"
    },
    {
      "anonymous": false,
      "inputs": [
        {
          "indexed": false,
          "internalType": "address",
          "name": "source_token",
          "type": "address"
        },
        {
          "indexed": false,
          "internalType": "address",
          "name": "target_token",
          "type": "address"
        },
        {
          "indexed": false,
          "internalType": "uint256",
          "name": "price",
          "type": "uint256"
        },
        {
          "indexed": false,
          "internalType": "uint256",
          "name": "min_rate_to_pass_proposal",
          "type": "uint256"
        },
        {
          "indexed": false,
          "internalType": "uint256",
          "name": "min_rate_to_withdraw",
          "type": "uint256"
        },
        {
          "indexed": false,
          "internalType": "uint256",
          "name": "commission_rate",
          "type": "uint256"
        }
      ],
      "name": "Init",
      "type": "event"
    },
    {
      "anonymous": false,
      "inputs": [
        {
          "indexed": false,
          "internalType": "uint256",
          "name": "index",
          "type": "uint256"
        },
        {
          "indexed": false,
          "internalType": "uint256",
          "name": "idx",
          "type": "uint256"
        }
      ],
      "name": "PaymentRejected",
      "type": "event"
    },
    {
      "anonymous": false,
      "inputs": [
        {
          "indexed": false,
          "internalType": "uint256",
          "name": "index",
          "type": "uint256"
        },
        {
          "indexed": false,
          "internalType": "uint256",
          "name": "idx",
          "type": "uint256"
        }
      ],
      "name": "PaymentReleased",
      "type": "event"
    },
    {
      "anonymous": false,
      "inputs": [
        {
          "indexed": false,
          "internalType": "uint256",
          "name": "index",
          "type": "uint256"
        }
      ],
      "name": "ProposalApproved",
      "type": "event"
    },
    {
      "anonymous": false,
      "inputs": [
        {
          "indexed": false,
          "internalType": "uint256",
          "name": "index",
          "type": "uint256"
        }
      ],
      "name": "ProposalRejected",
      "type": "event"
    },
    {
      "anonymous": false,
      "inputs": [
        {
          "indexed": false,
          "internalType": "uint256",
          "name": "idx",
          "type": "uint256"
        },
        {
          "indexed": false,
          "internalType": "uint256",
          "name": "amount_target_token",
          "type": "uint256"
        }
      ],
      "name": "Propose",
      "type": "event"
    },
    {
      "anonymous": false,
      "inputs": [
        {
          "indexed": false,
          "internalType": "uint256",
          "name": "index",
          "type": "uint256"
        },
        {
          "indexed": false,
          "internalType": "uint256",
          "name": "idx",
          "type": "uint256"
        }
      ],
      "name": "RejectPayment",
      "type": "event"
    },
    {
      "anonymous": false,
      "inputs": [
        {
          "indexed": false,
          "internalType": "uint256",
          "name": "index",
          "type": "uint256"
        }
      ],
      "name": "RejectProposal",
      "type": "event"
    },
    {
      "anonymous": false,
      "inputs": [
        {
          "indexed": false,
          "internalType": "uint256",
          "name": "index",
          "type": "uint256"
        },
        {
          "indexed": false,
          "internalType": "uint256",
          "name": "idx",
          "type": "uint256"
        }
      ],
      "name": "RequestPayment",
      "type": "event"
    },
    {
      "anonymous": false,
      "inputs": [
        {
          "indexed": false,
          "internalType": "uint256",
          "name": "source_amount",
          "type": "uint256"
        },
        {
          "indexed": false,
          "internalType": "uint256",
          "name": "target_amount",
          "type": "uint256"
        }
      ],
      "name": "Withdraw",
      "type": "event"
    },
    {
      "constant": true,
      "inputs": [],
      "name": "_commission_rate",
      "outputs": [
        {
          "internalType": "uint256",
          "name": "",
          "type": "uint256"
        }
      ],
      "payable": false,
      "stateMutability": "view",
      "type": "function"
    },
    {
      "constant": true,
      "inputs": [],
      "name": "_create_block",
      "outputs": [
        {
          "internalType": "uint256",
          "name": "",
          "type": "uint256"
        }
      ],
      "payable": false,
      "stateMutability": "view",
      "type": "function"
    },
    {
      "constant": true,
      "inputs": [
        {
          "internalType": "uint256",
          "name": "",
          "type": "uint256"
        }
      ],
      "name": "_holder_list",
      "outputs": [
        {
          "internalType": "address",
          "name": "",
          "type": "address"
        }
      ],
      "payable": false,
      "stateMutability": "view",
      "type": "function"
    },
    {
      "constant": true,
      "inputs": [],
      "name": "_manager",
      "outputs": [
        {
          "internalType": "address",
          "name": "",
          "type": "address"
        }
      ],
      "payable": false,
      "stateMutability": "view",
      "type": "function"
    },
    {
      "constant": true,
      "inputs": [],
      "name": "_min_rate_to_pass_dl",
      "outputs": [
        {
          "internalType": "uint256",
          "name": "",
          "type": "uint256"
        }
      ],
      "payable": false,
      "stateMutability": "view",
      "type": "function"
    },
    {
      "constant": true,
      "inputs": [],
      "name": "_min_rate_to_pass_proposal",
      "outputs": [
        {
          "internalType": "uint256",
          "name": "",
          "type": "uint256"
        }
      ],
      "payable": false,
      "stateMutability": "view",
      "type": "function"
    },
    {
      "constant": true,
      "inputs": [],
      "name": "_min_rate_to_pass_request",
      "outputs": [
        {
          "internalType": "uint256",
          "name": "",
          "type": "uint256"
        }
      ],
      "payable": false,
      "stateMutability": "view",
      "type": "function"
    },
    {
      "constant": true,
      "inputs": [],
      "name": "_num_proposals",
      "outputs": [
        {
          "internalType": "uint256",
          "name": "",
          "type": "uint256"
        }
      ],
      "payable": false,
      "stateMutability": "view",
      "type": "function"
    },
    {
      "constant": true,
      "inputs": [],
      "name": "_price",
      "outputs": [
        {
          "internalType": "uint256",
          "name": "",
          "type": "uint256"
        }
      ],
      "payable": false,
      "stateMutability": "view",
      "type": "function"
    },
    {
      "constant": true,
      "inputs": [],
      "name": "_project_meta",
      "outputs": [
        {
          "internalType": "string",
          "name": "",
          "type": "string"
        }
      ],
      "payable": false,
      "stateMutability": "view",
      "type": "function"
    },
    {
      "constant": true,
      "inputs": [
        {
          "internalType": "uint256",
          "name": "",
          "type": "uint256"
        }
      ],
      "name": "_proposals",
      "outputs": [
        {
          "internalType": "string",
          "name": "_proposal_meta",
          "type": "string"
        },
        {
          "internalType": "uint256",
          "name": "_proposed_amount",
          "type": "uint256"
        },
        {
          "internalType": "bool",
          "name": "_approved",
          "type": "bool"
        },
        {
          "internalType": "bool",
          "name": "_rejected",
          "type": "bool"
        },
        {
          "internalType": "bool",
          "name": "_released",
          "type": "bool"
        },
        {
          "internalType": "uint256",
          "name": "_tot_approved_vote_power",
          "type": "uint256"
        },
        {
          "internalType": "uint256",
          "name": "_tot_rejected_vote_power",
          "type": "uint256"
        },
        {
          "internalType": "uint256",
          "name": "_tot_vote_power_at_termination",
          "type": "uint256"
        },
        {
          "internalType": "uint256",
          "name": "_deadline",
          "type": "uint256"
        },
        {
          "internalType": "uint256",
          "name": "_num_payment_requests",
          "type": "uint256"
        }
      ],
      "payable": false,
      "stateMutability": "view",
      "type": "function"
    },
    {
      "constant": true,
      "inputs": [],
      "name": "_source_token",
      "outputs": [
        {
          "internalType": "address",
          "name": "",
          "type": "address"
        }
      ],
      "payable": false,
      "stateMutability": "view",
      "type": "function"
    },
    {
      "constant": true,
      "inputs": [
        {
          "internalType": "address",
          "name": "",
          "type": "address"
        }
      ],
      "name": "_stake_holders",
      "outputs": [
        {
          "internalType": "uint256",
          "name": "_source_contribution",
          "type": "uint256"
        },
        {
          "internalType": "uint256",
          "name": "_target_contribution",
          "type": "uint256"
        }
      ],
      "payable": false,
      "stateMutability": "view",
      "type": "function"
    },
    {
      "constant": true,
      "inputs": [],
      "name": "_target_token",
      "outputs": [
        {
          "internalType": "address",
          "name": "",
          "type": "address"
        }
      ],
      "payable": false,
      "stateMutability": "view",
      "type": "function"
    },
    {
      "constant": true,
      "inputs": [],
      "name": "_tot_source_contribution",
      "outputs": [
        {
          "internalType": "uint256",
          "name": "",
          "type": "uint256"
        }
      ],
      "payable": false,
      "stateMutability": "view",
      "type": "function"
    },
    {
      "constant": true,
      "inputs": [],
      "name": "_tot_source_locked",
      "outputs": [
        {
          "internalType": "uint256",
          "name": "",
          "type": "uint256"
        }
      ],
      "payable": false,
      "stateMutability": "view",
      "type": "function"
    },
    {
      "constant": true,
      "inputs": [],
      "name": "_tot_target_contribution",
      "outputs": [
        {
          "internalType": "uint256",
          "name": "",
          "type": "uint256"
        }
      ],
      "payable": false,
      "stateMutability": "view",
      "type": "function"
    },
    {
      "constant": true,
      "inputs": [],
      "name": "_tot_target_locked",
      "outputs": [
        {
          "internalType": "uint256",
          "name": "",
          "type": "uint256"
        }
      ],
      "payable": false,
      "stateMutability": "view",
      "type": "function"
    },
    {
      "constant": false,
      "inputs": [
        {
          "internalType": "uint256",
          "name": "index",
          "type": "uint256"
        },
        {
          "internalType": "uint256",
          "name": "idx",
          "type": "uint256"
        },
        {
          "internalType": "string",
          "name": "approval_meta",
          "type": "string"
        }
      ],
      "name": "approve_payment",
      "outputs": [],
      "payable": false,
      "stateMutability": "nonpayable",
      "type": "function"
    },
    {
      "constant": false,
      "inputs": [
        {
          "internalType": "uint256",
          "name": "index",
          "type": "uint256"
        },
        {
          "internalType": "string",
          "name": "approval_meta",
          "type": "string"
        }
      ],
      "name": "approve_proposal",
      "outputs": [],
      "payable": false,
      "stateMutability": "nonpayable",
      "type": "function"
    },
    {
      "constant": false,
      "inputs": [
        {
          "internalType": "address",
          "name": "token",
          "type": "address"
        },
        {
          "internalType": "uint256",
          "name": "amount",
          "type": "uint256"
        }
      ],
      "name": "deposit",
      "outputs": [],
      "payable": false,
      "stateMutability": "nonpayable",
      "type": "function"
    },
    {
      "constant": true,
      "inputs": [
        {
          "internalType": "uint256",
          "name": "index",
          "type": "uint256"
        },
        {
          "internalType": "address",
          "name": "voter",
          "type": "address"
        }
      ],
      "name": "get_proposal_voter_info",
      "outputs": [
        {
          "internalType": "bool",
          "name": "",
          "type": "bool"
        },
        {
          "internalType": "bool",
          "name": "",
          "type": "bool"
        },
        {
          "internalType": "uint256",
          "name": "",
          "type": "uint256"
        },
        {
          "internalType": "uint256",
          "name": "",
          "type": "uint256"
        },
        {
          "internalType": "string",
          "name": "",
          "type": "string"
        },
        {
          "internalType": "string",
          "name": "",
          "type": "string"
        }
      ],
      "payable": false,
      "stateMutability": "view",
      "type": "function"
    },
    {
      "constant": true,
      "inputs": [
        {
          "internalType": "uint256",
          "name": "index",
          "type": "uint256"
        },
        {
          "internalType": "uint256",
          "name": "idx",
          "type": "uint256"
        }
      ],
      "name": "get_request_info",
      "outputs": [
        {
          "internalType": "address",
          "name": "",
          "type": "address"
        },
        {
          "internalType": "string",
          "name": "",
          "type": "string"
        },
        {
          "internalType": "bool",
          "name": "",
          "type": "bool"
        },
        {
          "internalType": "bool",
          "name": "",
          "type": "bool"
        },
        {
          "internalType": "uint256",
          "name": "",
          "type": "uint256"
        },
        {
          "internalType": "uint256",
          "name": "",
          "type": "uint256"
        },
        {
          "internalType": "uint256",
          "name": "",
          "type": "uint256"
        }
      ],
      "payable": false,
      "stateMutability": "view",
      "type": "function"
    },
    {
      "constant": true,
      "inputs": [
        {
          "internalType": "uint256",
          "name": "index",
          "type": "uint256"
        },
        {
          "internalType": "uint256",
          "name": "idx",
          "type": "uint256"
        },
        {
          "internalType": "address",
          "name": "voter",
          "type": "address"
        }
      ],
      "name": "get_request_voter_info",
      "outputs": [
        {
          "internalType": "bool",
          "name": "",
          "type": "bool"
        },
        {
          "internalType": "bool",
          "name": "",
          "type": "bool"
        },
        {
          "internalType": "uint256",
          "name": "",
          "type": "uint256"
        },
        {
          "internalType": "uint256",
          "name": "",
          "type": "uint256"
        },
        {
          "internalType": "string",
          "name": "",
          "type": "string"
        },
        {
          "internalType": "string",
          "name": "",
          "type": "string"
        }
      ],
      "payable": false,
      "stateMutability": "view",
      "type": "function"
    },
    {
      "constant": false,
      "inputs": [
        {
          "internalType": "address",
          "name": "source_token",
          "type": "address"
        },
        {
          "internalType": "address",
          "name": "target_token",
          "type": "address"
        },
        {
          "internalType": "uint256",
          "name": "price",
          "type": "uint256"
        },
        {
          "internalType": "uint256",
          "name": "min_rate_to_pass_proposal",
          "type": "uint256"
        },
        {
          "internalType": "uint256",
          "name": "min_rate_to_pass_request",
          "type": "uint256"
        },
        {
          "internalType": "uint256",
          "name": "commission_rate",
          "type": "uint256"
        },
        {
          "internalType": "string",
          "name": "project_meta",
          "type": "string"
        }
      ],
      "name": "initiate",
      "outputs": [],
      "payable": false,
      "stateMutability": "nonpayable",
      "type": "function"
    },
    {
      "constant": false,
      "inputs": [
        {
          "internalType": "string",
          "name": "proposal_meta",
          "type": "string"
        },
        {
          "internalType": "uint256",
          "name": "amount_target_token",
          "type": "uint256"
        },
        {
          "internalType": "uint256",
          "name": "deadline",
          "type": "uint256"
        }
      ],
      "name": "propose",
      "outputs": [],
      "payable": false,
      "stateMutability": "nonpayable",
      "type": "function"
    },
    {
      "constant": false,
      "inputs": [
        {
          "internalType": "uint256",
          "name": "index",
          "type": "uint256"
        },
        {
          "internalType": "uint256",
          "name": "idx",
          "type": "uint256"
        },
        {
          "internalType": "string",
          "name": "reject_meta",
          "type": "string"
        }
      ],
      "name": "reject_payment",
      "outputs": [],
      "payable": false,
      "stateMutability": "nonpayable",
      "type": "function"
    },
    {
      "constant": false,
      "inputs": [
        {
          "internalType": "uint256",
          "name": "index",
          "type": "uint256"
        },
        {
          "internalType": "string",
          "name": "reject_meta",
          "type": "string"
        }
      ],
      "name": "reject_proposal",
      "outputs": [],
      "payable": false,
      "stateMutability": "nonpayable",
      "type": "function"
    },
    {
      "constant": false,
      "inputs": [
        {
          "internalType": "uint256",
          "name": "index",
          "type": "uint256"
        },
        {
          "internalType": "uint256",
          "name": "idx",
          "type": "uint256"
        },
        {
          "internalType": "uint256",
          "name": "deadline",
          "type": "uint256"
        },
        {
          "internalType": "string",
          "name": "payment_meta",
          "type": "string"
        }
      ],
      "name": "request_payment",
      "outputs": [],
      "payable": false,
      "stateMutability": "nonpayable",
      "type": "function"
    },
    {
      "constant": false,
      "inputs": [
        {
          "internalType": "uint256",
          "name": "source_amount",
          "type": "uint256"
        },
        {
          "internalType": "uint256",
          "name": "target_amount",
          "type": "uint256"
        }
      ],
      "name": "withdraw",
      "outputs": [],
      "payable": false,
      "stateMutability": "nonpayable",
      "type": "function"
    }
  ],
  "bytecode": "0x608060405234801561001057600080fd5b50613407806100206000396000f3fe608060405234801561001057600080fd5b50600436106101da5760003560e01c8063616691c511610104578063a788da7b116100a2578063ea991cd511610071578063ea991cd5146108eb578063ec9c10941461096e578063f0329f6b146109ea578063fc022f5f146109f2576101da565b8063a788da7b14610856578063c690d1b01461085e578063d37232b2146108db578063e1847ebd146108e3576101da565b80637adaf409116100de5780637adaf4091461073757806390d0b59e146107ca57806390f4ebf6146107d257806391702c76146107da576101da565b8063616691c5146106fb578063689b15fe146107035780637976d3651461072f576101da565b806332053a7a1161017c57806349fc3b1e1161014b57806349fc3b1e1461063557806352cc1703146106ac57806355ec494b146106eb5780635d44be70146106f3576101da565b806332053a7a146105a55780633f66b1c5146105de578063441a3e70146105e657806347e7ef2414610609576101da565b806316cb3b20116101b857806316cb3b20146104965780631a03f3df1461050d578063235b6ea1146105275780632aa77c4c1461052f576101da565b80630810e830146101df5780630a4948401461028257806310fea8a014610362575b600080fd5b610280600480360360e08110156101f557600080fd5b6001600160a01b03823581169260208101359091169160408201359160608101359160808201359160a08101359181019060e0810160c082013564010000000081111561024157600080fd5b82018360208201111561025357600080fd5b8035906020019184600183028401116401000000008311171561027557600080fd5b5090925090506109fa565b005b61029f6004803603602081101561029857600080fd5b5035610b4a565b60405180806020018b81526020018a151515158152602001891515151581526020018815151515815260200187815260200186815260200185815260200184815260200183815260200182810382528c818151815260200191508051906020019080838360005b8381101561031e578181015183820152602001610306565b50505050905090810190601f16801561034b5780820380516001836020036101000a031916815260200191505b509b50505050505050505050505060405180910390f35b6103946004803603606081101561037857600080fd5b50803590602081013590604001356001600160a01b0316610c29565b6040518087151515158152602001861515151581526020018581526020018481526020018060200180602001838103835285818151815260200191508051906020019080838360005b838110156103f55781810151838201526020016103dd565b50505050905090810190601f1680156104225780820380516001836020036101000a031916815260200191505b50838103825284518152845160209182019186019080838360005b8381101561045557818101518382015260200161043d565b50505050905090810190601f1680156104825780820380516001836020036101000a031916815260200191505b509850505050505050505060405180910390f35b610280600480360360408110156104ac57600080fd5b813591908101906040810160208201356401000000008111156104ce57600080fd5b8201836020820111156104e057600080fd5b8035906020019184600183028401116401000000008311171561050257600080fd5b509092509050610dd9565b61051561102c565b60408051918252519081900360200190f35b610515611032565b6102806004803603606081101561054557600080fd5b81019060208101813564010000000081111561056057600080fd5b82018360208201111561057257600080fd5b8035906020019184600183028401116401000000008311171561059457600080fd5b919350915080359060200135611038565b6105c2600480360360208110156105bb57600080fd5b50356111bd565b604080516001600160a01b039092168252519081900360200190f35b6105c26111e4565b610280600480360360408110156105fc57600080fd5b50803590602001356111f3565b6102806004803603604081101561061f57600080fd5b506001600160a01b038135169060200135611507565b6102806004803603604081101561064b57600080fd5b8135919081019060408101602082013564010000000081111561066d57600080fd5b82018360208201111561067f57600080fd5b803590602001918460018302840111640100000000831117156106a157600080fd5b509092509050611816565b6106d2600480360360208110156106c257600080fd5b50356001600160a01b0316611a69565b6040805192835260208301919091528051918290030190f35b610515611a82565b610515611a88565b6105c2611a8e565b6103946004803603604081101561071957600080fd5b50803590602001356001600160a01b0316611a9d565b610515611c40565b61075a6004803603604081101561074d57600080fd5b5080359060200135611c46565b604080516001600160a01b03891681528615159181019190915284151560608201526080810184905260a0810183905260c0810182905260e0602080830182815289519284019290925288516101008401918a01908083836000831561045557818101518382015260200161043d565b610515611d4f565b610515611d55565b610280600480360360608110156107f057600080fd5b81359160208101359181019060608101604082013564010000000081111561081757600080fd5b82018360208201111561082957600080fd5b8035906020019184600183028401116401000000008311171561084b57600080fd5b509092509050611d5b565b61051561206d565b610866612073565b6040805160208082528351818301528351919283929083019185019080838360005b838110156108a0578181015183820152602001610888565b50505050905090810190601f1680156108cd5780820380516001836020036101000a031916815260200191505b509250505060405180910390f35b610515612101565b610515612107565b6102806004803603608081101561090157600080fd5b8135916020810135916040820135919081019060808101606082013564010000000081111561092f57600080fd5b82018360208201111561094157600080fd5b8035906020019184600183028401116401000000008311171561096357600080fd5b50909250905061210d565b6102806004803603606081101561098457600080fd5b8135916020810135918101906060810160408201356401000000008111156109ab57600080fd5b8201836020820111156109bd57600080fd5b803590602001918460018302840111640100000000831117156109df57600080fd5b5090925090506122b1565b6105c26125c3565b6105156125d2565b6000546001600160a01b031615610a58576040805162461bcd60e51b815260206004820152601a60248201527f50726f6a65637420616c726561647920696e697469617465642e000000000000604482015290519081900360640190fd5b600080543373ffffffffffffffffffffffffffffffffffffffff19918216179091556001805482166001600160a01b038b811691909117909155600280549092169089161790556003869055600485905560058490556007839055610abf600c8383613210565b506000600a819055600b556706f05b59d3b20000600655610ade6125d8565b600d55604080516001600160a01b03808b16825289166020820152808201889052606081018790526080810186905260a0810185905290517f9cf5961a85c7f8e7a338e8a65f5b28ec17985fa771ab0c7bb93eb86b76cfec589181900360c00190a15050505050505050565b60116020908152600091825260409182902080548351601f60026000196101006001861615020190931692909204918201849004840281018401909452808452909291839190830182828015610be15780601f10610bb657610100808354040283529160200191610be1565b820191906000526020600020905b815481529060010190602001808311610bc457829003601f168201915b50505050600183015460028401546009850154600a860154600b870154600c880154600d909801549697949660ff80861697506101008604811696620100009096041694908a565b6000838152601160209081526040808320858452600e0182528083206001600160a01b0385168452600381018352818420546004820184528285205460058301855283862054600684018652848720546007850187528588206008860188528689208154885160026101006001841615026000190190921691909104601f81018b90048b0282018b019099528881528a998a998a996060998a99919860ff91821698919092169691959094919390928491830182828015610d2b5780601f10610d0057610100808354040283529160200191610d2b565b820191906000526020600020905b815481529060010190602001808311610d0e57829003601f168201915b5050845460408051602060026001851615610100026000190190941693909304601f810184900484028201840190925281815295975086945092508401905082828015610db95780601f10610d8e57610100808354040283529160200191610db9565b820191906000526020600020905b815481529060010190602001808311610d9c57829003601f168201915b505050505090509650965096509650965096505093975093979195509350565b826010548110610e1a5760405162461bcd60e51b81526004018080602001828103825260268152602001806133616026913960400191505060405180910390fd5b610e23816125dd565b506000818152601160205260409020600281015460ff16158015610e5157506002810154610100900460ff16155b610e8c5760405162461bcd60e51b81526004018080602001828103825260218152602001806133b26021913960400191505060405180910390fd5b33600090815260038201602052604090205460ff1615610ef3576040805162461bcd60e51b815260206004820152601760248201527f616c726561647920617070726f76656420627920796f75000000000000000000604482015290519081900360640190fd5b33600090815260048201602052604090205460ff1615610f5a576040805162461bcd60e51b815260206004820152601760248201527f616c72656164792072656a656374656420627920796f75000000000000000000604482015290519081900360640190fd5b6000858152601160209081526040808320338452600381018352818420805460ff1916600117905560078101909252909120610f97908686613210565b506000610fa333612628565b33600090815260058401602052604090208190556009830154909150610fcf908263ffffffff61266d16565b6009830155610fdd876126d0565b151560011415610ff057610ff08761274f565b6040805188815290517f38f09256e3041474c7da0c3b395eb26f839ed1e6f79bc56edb004a7ea8e7959d9181900360200190a150505050505050565b600b5481565b60035481565b80600d5481116110795760405162461bcd60e51b815260040180806020018281038252602181526020018061331f6021913960400191505060405180910390fd5b6000546001600160a01b031633146110d8576040805162461bcd60e51b815260206004820152601860248201527f4f6e6c79206d616e616765722063616e2070726f706f73650000000000000000604482015290519081900360640190fd5b60005b6010548110156110f7576110ee816125dd565b506001016110db565b5060095483106111385760405162461bcd60e51b81526004018080602001828103825260268152602001806132cf6026913960400191505060405180910390fd5b6010546000908152601160205260409020611154818787613210565b506001808201859055600c82018490556010546111769163ffffffff61266d16565b6010819055604080519182526020820186905280517fe6aa0ab9b64da83aa518c7c2647344318a7ee97902d35125f40be55e2ce2176e9281900390910190a1505050505050565b600e81815481106111ca57fe5b6000918252602090912001546001600160a01b0316905081565b6002546001600160a01b031681565b60005b60105481101561121257611209816125dd565b506001016111f6565b50600854600090611229908463ffffffff61281616565b905060006112428360095461281690919063ffffffff16565b9050600a5482101580156112585750600b548110155b6112a9576040805162461bcd60e51b815260206004820152601e60248201527f496e73756666696369656e742066756e6420666f722077697468647261770000604482015290519081900360640190fd5b60006112b482612858565b90508083101561130b576040805162461bcd60e51b815260206004820152601c60248201527f766f74652062616c616e636520686173206265656e2062726f6b656e00000000604482015290519081900360640190fd5b336000908152600f602052604090208054861180159061132f575080600101548511155b61136a5760405162461bcd60e51b81526004018080602001828103825260268152602001806132a96026913960400191505060405180910390fd5b6001546040805163a9059cbb60e01b81523360048201526024810189905290516001600160a01b039092169163a9059cbb916044808201926020929091908290030181600087803b1580156113be57600080fd5b505af11580156113d2573d6000803e3d6000fd5b505050506040513d60208110156113e857600080fd5b50506002546040805163a9059cbb60e01b81523360048201526024810188905290516001600160a01b039092169163a9059cbb916044808201926020929091908290030181600087803b15801561143e57600080fd5b505af1158015611452573d6000803e3d6000fd5b505050506040513d602081101561146857600080fd5b505060085461147d908763ffffffff61281616565b600855600954611493908663ffffffff61281616565b60095580546114a8908763ffffffff61281616565b815560018101546114bf908663ffffffff61281616565b6001820155604080518781526020810187905281517f56ca301a9219608c91e7bcee90e083c19671d2cdcc96752c7af291cee5f9c8c8929181900390910190a1505050505050565b600e546064101561155f576040805162461bcd60e51b815260206004820152601c60248201527f65786365656420686f6c646572206d6178696d756d20636f756e742100000000604482015290519081900360640190fd5b6001546001600160a01b038381169116148061158857506002546001600160a01b038381169116145b6115d9576040805162461bcd60e51b815260206004820152601260248201527f746f6b656e20756e7265636f676e697a65640000000000000000000000000000604482015290519081900360640190fd5b604080517f23b872dd0000000000000000000000000000000000000000000000000000000081523360048201523060248201526044810183905290516001600160a01b038416916323b872dd9160648083019260209291908290030181600087803b15801561164757600080fd5b505af115801561165b573d6000803e3d6000fd5b505050506040513d602081101561167157600080fd5b5050336000908152600f60205260409020805415801561169357506001810154155b156116e857600e80546001810182556000919091527fbb7b4a454dc3493923482f07822329ed19e8244eff582cc204f8554c3620c3fd01805473ffffffffffffffffffffffffffffffffffffffff1916331790555b6001546001600160a01b038481169116141561172d578054611710908363ffffffff61266d16565b8155600854611725908363ffffffff61266d16565b6008556117cd565b600061173883612858565b90506000611747600954612858565b60085490915061175d838363ffffffff61266d16565b111561179a5760405162461bcd60e51b815260040180806020018281038252602b815260200180613387602b913960400191505060405180910390fd5b60018301546117af908563ffffffff61266d16565b60018401556009546117c7908563ffffffff61266d16565b60095550505b604080516001600160a01b03851681526020810184905281517fe1fffcc4923d04b559f4d29a8bfc6cda04eb5b0d3c460751c2402c5c5cc9109c929181900390910190a1505050565b8260105481106118575760405162461bcd60e51b81526004018080602001828103825260268152602001806133616026913960400191505060405180910390fd5b611860816125dd565b506000818152601160205260409020600281015460ff1615801561188e57506002810154610100900460ff16155b6118c95760405162461bcd60e51b81526004018080602001828103825260218152602001806133b26021913960400191505060405180910390fd5b33600090815260038201602052604090205460ff1615611930576040805162461bcd60e51b815260206004820152601760248201527f616c726561647920617070726f76656420627920796f75000000000000000000604482015290519081900360640190fd5b33600090815260048201602052604090205460ff1615611997576040805162461bcd60e51b815260206004820152601760248201527f616c72656164792072656a656374656420627920796f75000000000000000000604482015290519081900360640190fd5b6000858152601160209081526040808320338452600481018352818420805460ff19166001179055600881019092529091206119d4908686613210565b5060006119e033612628565b3360009081526006840160205260409020819055600a830154909150611a0c908263ffffffff61266d16565b600a830155611a1a87612887565b151560011415611a2d57611a2d87612919565b6040805188815290517f0e37f9e6bfc375c19a26e26e6509a15f42c0bf9b6912c3f3334e92a7b2937b159181900360200190a150505050505050565b600f602052600090815260409020805460019091015482565b60075481565b600d5481565b6001546001600160a01b031681565b60008281526011602090815260408083206001600160a01b0385168452600381018352818420546004820184528285205460058301855283862054600684018652848720546007850187528588206008860188528689208154885160026101006001841615026000190190921691909104601f81018b90048b0282018b019099528881528a998a998a996060998a99919860ff91821698919092169691959094919390928491830182828015611b945780601f10611b6957610100808354040283529160200191611b94565b820191906000526020600020905b815481529060010190602001808311611b7757829003601f168201915b5050845460408051602060026001851615610100026000190190941693909304601f810184900484028201840190925281815295975086945092508401905082828015611c225780601f10611bf757610100808354040283529160200191611c22565b820191906000526020600020905b815481529060010190602001808311611c0557829003601f168201915b50505050509050965096509650965096509650509295509295509295565b60055481565b6000828152601160209081526040808320848452600e01825280832080546002808301546009840154600a850154600b860154600180880180548a516101009382161584026000190190911697909704601f81018c90048c0288018c01909a5289875260609a8c9a8b9a8b9a8b9a8b9a92996001600160a01b0390921698959760ff8085169890940490931695919491939091889190830182828015611d2d5780601f10611d0257610100808354040283529160200191611d2d565b820191906000526020600020905b815481529060010190602001808311611d1057829003601f168201915b5050505050955097509750975097509750975097505092959891949750929550565b600a5481565b60045481565b83836010548210611db3576040805162461bcd60e51b815260206004820152601860248201527f70726f706f73616c20646f6573206e6f74206578697374730000000000000000604482015290519081900360640190fd5b6000828152601160205260409020600281015460ff1615156001148015611de55750600281015462010000900460ff16155b611e36576040805162461bcd60e51b815260206004820152601260248201527f70726f706f73616c2066696e616c697a65640000000000000000000000000000604482015290519081900360640190fd5b6000828152600e820160209081526040808320338452600381019092529091205460ff1615611eac576040805162461bcd60e51b815260206004820152601760248201527f616c726561647920617070726f76656420627920796f75000000000000000000604482015290519081900360640190fd5b33600090815260048201602052604090205460ff1615611f13576040805162461bcd60e51b815260206004820152601760248201527f616c72656164792072656a656374656420627920796f75000000000000000000604482015290519081900360640190fd5b600281015460ff16158015611f3257506002810154610100900460ff16155b611f83576040805162461bcd60e51b815260206004820152601160248201527f726571756573742066696e616c697a6564000000000000000000000000000000604482015290519081900360640190fd5b60008881526011602090815260408083208a8452600e018252808320338452600481018352818420805460ff1916600117905560088101909252909120611fcb908888613210565b506000611fd733612628565b3360009081526006840160205260409020819055600a830154909150612003908263ffffffff61266d16565b600a8301556120128a8a61299a565b151560011415612026576120268a8a612a3b565b604080518b8152602081018b905281517f775a99a23304d411fc2b1a8eeb5d5fb63131e1eed97d0fe491aa4d52184b58f9929181900390910190a150505050505050505050565b60095481565b600c805460408051602060026001851615610100026000190190941693909304601f810184900484028201840190925281815292918301828280156120f95780601f106120ce576101008083540402835291602001916120f9565b820191906000526020600020905b8154815290600101906020018083116120dc57829003601f168201915b505050505081565b60085481565b60065481565b846010548110612164576040805162461bcd60e51b815260206004820152601860248201527f50726f706f73616c20646f6573206e6f74206578697374210000000000000000604482015290519081900360640190fd5b61216d816125dd565b506000818152601160205260409020600281015460ff16151560011480156121a05750600281015462010000900460ff16155b6121db5760405162461bcd60e51b815260040180806020018281038252602a8152602001806132f5602a913960400191505060405180910390fd5b84600d54811161221c5760405162461bcd60e51b815260040180806020018281038252602181526020018061331f6021913960400191505060405180910390fd5b60008881526011602090815260408083208a8452600e019091529020612246600182018787613210565b50805473ffffffffffffffffffffffffffffffffffffffff191633178155600c8101879055604080518a8152602081018a905281517f3d2e9116ecfbb0dcbbd0c5cbdb8e00565b81c852f3ae02b4c1fc5d484236b48a929181900390910190a1505050505050505050565b83836010548210612309576040805162461bcd60e51b815260206004820152601860248201527f70726f706f73616c20646f6573206e6f74206578697374730000000000000000604482015290519081900360640190fd5b6000828152601160205260409020600281015460ff161515600114801561233b5750600281015462010000900460ff16155b61238c576040805162461bcd60e51b815260206004820152601260248201527f70726f706f73616c2066696e616c697a65640000000000000000000000000000604482015290519081900360640190fd5b6000828152600e820160209081526040808320338452600381019092529091205460ff1615612402576040805162461bcd60e51b815260206004820152601760248201527f616c726561647920617070726f76656420627920796f75000000000000000000604482015290519081900360640190fd5b33600090815260048201602052604090205460ff1615612469576040805162461bcd60e51b815260206004820152601760248201527f616c72656164792072656a656374656420627920796f75000000000000000000604482015290519081900360640190fd5b600281015460ff1615801561248857506002810154610100900460ff16155b6124d9576040805162461bcd60e51b815260206004820152601160248201527f726571756573742066696e616c697a6564000000000000000000000000000000604482015290519081900360640190fd5b60008881526011602090815260408083208a8452600e018252808320338452600381018352818420805460ff1916600117905560078101909252909120612521908888613210565b50600061252d33612628565b33600090815260058401602052604090208190556009830154909150612559908263ffffffff61266d16565b60098301556125688a8a612ad3565b15156001141561257c5761257c8a8a612b55565b604080518b8152602081018b905281517f0af3c87cdae21fd9b8bc75f22c55707916745701dc21516dd93d31ebb858bb0a929181900390910190a150505050505050505050565b6000546001600160a01b031681565b60105481565b435b90565b60006125e8826126d0565b151560011415612603576125fb8261274f565b506001612623565b61260c82612887565b15156001141561261f576125fb82612919565b5060005b919050565b6001600160a01b0381166000908152600f6020526040812080546001820154839061265290612858565b9050612664828263ffffffff61266d16565b95945050505050565b6000828201838110156126c7576040805162461bcd60e51b815260206004820152601b60248201527f536166654d6174683a206164646974696f6e206f766572666c6f770000000000604482015290519081900360640190fd5b90505b92915050565b6000818152601160205260408120816126e7613013565b6009830154600454919250906126fd828461303d565b1061270e5760019350505050612623565b6127166125d8565b83600c01541080156127335750600654612730828461303d565b10155b156127445760019350505050612623565b506000949350505050565b600081815260116020526040812060028101805460ff1916600117905560095490919061277b90612858565b600854909150612791908263ffffffff61266d16565b600b80840191909155600183015490546127b09163ffffffff61266d16565b600b5560018201546000906127c490612858565b600a549091506127da908263ffffffff61266d16565b600a556040805185815290517f28ec9e38ba73636ceb2f6c1574136f83bd46284a3c74734b711bf45e12f8d9299181900360200190a150505050565b60006126c783836040518060400160405280601e81526020017f536166654d6174683a207375627472616374696f6e206f766572666c6f77000081525061305b565b60006126ca670de0b6b3a764000061287b600354856130f290919063ffffffff16565b9063ffffffff61314b16565b60008181526011602052604081208161289e613013565b600a83015460098401546004549293509091670de0b6b3a7640000036128c4838561303d565b11156128d7576001945050505050612623565b6128df6125d8565b84600c01541080156128fb57506006546128f9828561303d565b105b1561290d576001945050505050612623565b50600095945050505050565b600081815260116020526040812060028101805461ff00191661010017905560095490919061294790612858565b60085490915061295d908263ffffffff61266d16565b600b8301556040805184815290517fd92fba445edb3153b571e6df782d7a66fd0ce668519273670820ee3a86da0ef49181900360200190a1505050565b6000828152601160209081526040808320848452600e019091528120816129bf613013565b600a83015460098401546005549293509091670de0b6b3a7640000036129e5838561303d565b11156129f85760019450505050506126ca565b612a006125d8565b84600c0154108015612a1c5750600654612a1a828561303d565b105b15612a2e5760019450505050506126ca565b5060009695505050505050565b6000828152601160209081526040808320848452600e01909152812060028101805461ff001916610100179055600954909190612a7790612858565b600854909150612a8d908263ffffffff61266d16565b600b830155604080518581526020810185905281517fa099e78478ae432876f0304a510a36b1191910aaf20cf582cd9dec451ea84620929181900390910190a150505050565b6000828152601160209081526040808320848452600e01909152812081612af8613013565b600983015460055491925090612b0e828461303d565b10612b1f57600193505050506126ca565b612b276125d8565b83600c0154108015612b445750600654612b41828461303d565b10155b1561290d57600193505050506126ca565b60008281526011602052604081206001810154909190612b7490612858565b90506000826001015490506000612b9782600754670de0b6b3a76400000361318d565b90506000612ba78460075461318d565b6000878152600e8701602090815260408083206001548154835163a9059cbb60e01b81526001600160a01b039182166004820152602481018890529351969750919591169363a9059cbb93604480850194919392918390030190829087803b158015612c1257600080fd5b505af1158015612c26573d6000803e3d6000fd5b505050506040513d6020811015612c3c57600080fd5b505060025481546040805163a9059cbb60e01b81526001600160a01b039283166004820152602481018790529051919092169163a9059cbb9160448083019260209291908290030181600087803b158015612c9657600080fd5b505af1158015612caa573d6000803e3d6000fd5b505050506040513d6020811015612cc057600080fd5b50600090505b600e54811015612f65576000600f6000600e8481548110612ce357fe5b60009182526020808320909101546001600160a01b0316835282019290925260400181208054600854919350612d189161303d565b90506000612d2c836001015460095461303d565b90508115612e3c576000612d428960075461318d565b90506000612d50828561318d565b600254600e80549293506001600160a01b039091169163a9059cbb919089908110612d7757fe5b6000918252602080832090910154604080517fffffffff0000000000000000000000000000000000000000000000000000000060e087901b1681526001600160a01b039092166004830152602482018790525160448083019491928390030190829087803b158015612de857600080fd5b505af1158015612dfc573d6000803e3d6000fd5b505050506040513d6020811015612e1257600080fd5b5060009050612e218c8661318d565b8654909150612e36908263ffffffff61281616565b86555050505b8015612f5a576000612e5a8a600754670de0b6b3a76400000361318d565b90506000612e68828461318d565b600154600e80549293506001600160a01b039091169163a9059cbb919089908110612e8f57fe5b6000918252602080832090910154604080517fffffffff0000000000000000000000000000000000000000000000000000000060e087901b1681526001600160a01b039092166004830152602482018790525160448083019491928390030190829087803b158015612f0057600080fd5b505af1158015612f14573d6000803e3d6000fd5b505050506040513d6020811015612f2a57600080fd5b5060009050612f398b8561318d565b6001870154909150612f51908263ffffffff61281616565b60018701555050505b505050600101612cc6565b506000612f73600954612858565b600854909150612f89908263ffffffff61266d16565b600b830155600854612fa1908763ffffffff61281616565b600855600954612fb7908663ffffffff61281616565b60095560028701805462ff0000191662010000179055604080518a8152602081018a905281517fc8ef479acdbffd729d96117b951d1c3ee85d98ef42699aec806bc4f0b522461d929181900390910190a1505050505050505050565b600080613021600954612858565b600854909150613037908263ffffffff61266d16565b91505090565b60006126c78261287b85670de0b6b3a764000063ffffffff6130f216565b600081848411156130ea5760405162461bcd60e51b81526004018080602001828103825283818151815260200191508051906020019080838360005b838110156130af578181015183820152602001613097565b50505050905090810190601f1680156130dc5780820380516001836020036101000a031916815260200191505b509250505060405180910390fd5b505050900390565b600082613101575060006126ca565b8282028284828161310e57fe5b04146126c75760405162461bcd60e51b81526004018080602001828103825260218152602001806133406021913960400191505060405180910390fd5b60006126c783836040518060400160405280601a81526020017f536166654d6174683a206469766973696f6e206279207a65726f0000000000008152506131ab565b60006126c7670de0b6b3a764000061287b858563ffffffff6130f216565b600081836131fa5760405162461bcd60e51b81526020600482018181528351602484015283519092839260449091019190850190808383600083156130af578181015183820152602001613097565b50600083858161320657fe5b0495945050505050565b828054600181600116156101000203166002900490600052602060002090601f016020900481019282601f106132515782800160ff1982351617855561327e565b8280016001018555821561327e579182015b8281111561327e578235825591602001919060010190613263565b5061328a92915061328e565b5090565b6125da91905b8082111561328a576000815560010161329456fe596f7520646f6e2774206861766520656e6f7567682066756e6420746f207769746864726177596f752063616e206e6f742070726f706f7365206d6f7265207468616e20726573657276652150726f706f73616c206e6f7420617070726f766564206f7220616c72656164792072656c65617365642e646561646c696e652063616e206e6f74206265206c657373207468616e206e6f77536166654d6174683a206d756c7469706c69636174696f6e206f766572666c6f7743616e206e6f7420766f746520666f7220616e20756e657869737465642070726f706f73616c63616e206e6f7420696e76657374206d6f7265207468616e20736f7572636520746f6b656e2076616c756570726f706f73616c2063616e206e6f7420626520766f74656420616e796d6f7265a265627a7a72315820fd2211cbbd9cc85cfa508108ffc336d1d1bcb4f905219cc50b06d82bc6ba88c464736f6c63430005100032",
  "linkReferences": {},
  "deployedLinkReferences": {}
}