{
    "_format": "hh-sol-artifact-1",
    "contractName": "Project",
    "sourceName": "contracts/Project.sol",
    "abi": [
        {
            "anonymous": false,
            "inputs": [
                {
                    "indexed": false,
                    "internalType": "uint256",
                    "name": "index",
                    "type": "uint256"
                },
                {
                    "indexed": false,
                    "internalType": "uint256",
                    "name": "idx",
                    "type": "uint256"
                }
            ],
            "name": "ApprovePayment",
            "type": "event"
        },
        {
            "anonymous": false,
            "inputs": [
                {
                    "indexed": false,
                    "internalType": "uint256",
                    "name": "index",
                    "type": "uint256"
                }
            ],
            "name": "ApproveProposal",
            "type": "event"
        },
        {
            "anonymous": false,
            "inputs": [
                {
                    "indexed": false,
                    "internalType": "address",
                    "name": "token",
                    "type": "address"
                },
                {
                    "indexed": false,
                    "internalType": "uint256",
                    "name": "amount",
                    "type": "uint256"
                }
            ],
            "name": "Deposit",
            "type": "event"
        },
        {
            "anonymous": false,
            "inputs": [
                {
                    "indexed": false,
                    "internalType": "address",
                    "name": "source_token",
                    "type": "address"
                },
                {
                    "indexed": false,
                    "internalType": "address",
                    "name": "target_token",
                    "type": "address"
                },
                {
                    "indexed": false,
                    "internalType": "uint256",
                    "name": "price",
                    "type": "uint256"
                },
                {
                    "indexed": false,
                    "internalType": "uint256",
                    "name": "min_rate_to_pass_proposal",
                    "type": "uint256"
                },
                {
                    "indexed": false,
                    "internalType": "uint256",
                    "name": "min_rate_to_withdraw",
                    "type": "uint256"
                },
                {
                    "indexed": false,
                    "internalType": "uint256",
                    "name": "commission_rate",
                    "type": "uint256"
                }
            ],
            "name": "Init",
            "type": "event"
        },
        {
            "anonymous": false,
            "inputs": [
                {
                    "indexed": false,
                    "internalType": "uint256",
                    "name": "index",
                    "type": "uint256"
                },
                {
                    "indexed": false,
                    "internalType": "uint256",
                    "name": "idx",
                    "type": "uint256"
                }
            ],
            "name": "PaymentRejected",
            "type": "event"
        },
        {
            "anonymous": false,
            "inputs": [
                {
                    "indexed": false,
                    "internalType": "uint256",
                    "name": "index",
                    "type": "uint256"
                },
                {
                    "indexed": false,
                    "internalType": "uint256",
                    "name": "idx",
                    "type": "uint256"
                }
            ],
            "name": "PaymentReleased",
            "type": "event"
        },
        {
            "anonymous": false,
            "inputs": [
                {
                    "indexed": false,
                    "internalType": "uint256",
                    "name": "index",
                    "type": "uint256"
                }
            ],
            "name": "ProposalApproved",
            "type": "event"
        },
        {
            "anonymous": false,
            "inputs": [
                {
                    "indexed": false,
                    "internalType": "uint256",
                    "name": "index",
                    "type": "uint256"
                }
            ],
            "name": "ProposalRejected",
            "type": "event"
        },
        {
            "anonymous": false,
            "inputs": [
                {
                    "indexed": false,
                    "internalType": "uint256",
                    "name": "idx",
                    "type": "uint256"
                },
                {
                    "indexed": false,
                    "internalType": "uint256",
                    "name": "amount_target_token",
                    "type": "uint256"
                }
            ],
            "name": "Propose",
            "type": "event"
        },
        {
            "anonymous": false,
            "inputs": [
                {
                    "indexed": false,
                    "internalType": "uint256",
                    "name": "index",
                    "type": "uint256"
                },
                {
                    "indexed": false,
                    "internalType": "uint256",
                    "name": "idx",
                    "type": "uint256"
                }
            ],
            "name": "RejectPayment",
            "type": "event"
        },
        {
            "anonymous": false,
            "inputs": [
                {
                    "indexed": false,
                    "internalType": "uint256",
                    "name": "index",
                    "type": "uint256"
                }
            ],
            "name": "RejectProposal",
            "type": "event"
        },
        {
            "anonymous": false,
            "inputs": [
                {
                    "indexed": false,
                    "internalType": "uint256",
                    "name": "index",
                    "type": "uint256"
                },
                {
                    "indexed": false,
                    "internalType": "uint256",
                    "name": "idx",
                    "type": "uint256"
                }
            ],
            "name": "RequestPayment",
            "type": "event"
        },
        {
            "anonymous": false,
            "inputs": [
                {
                    "indexed": false,
                    "internalType": "uint256",
                    "name": "source_amount",
                    "type": "uint256"
                },
                {
                    "indexed": false,
                    "internalType": "uint256",
                    "name": "target_amount",
                    "type": "uint256"
                }
            ],
            "name": "Withdraw",
            "type": "event"
        },
        {
            "constant": true,
            "inputs": [],
            "name": "_commission_rate",
            "outputs": [
                {
                    "internalType": "uint256",
                    "name": "",
                    "type": "uint256"
                }
            ],
            "payable": false,
            "stateMutability": "view",
            "type": "function"
        },
        {
            "constant": true,
            "inputs": [
                {
                    "internalType": "uint256",
                    "name": "",
                    "type": "uint256"
                }
            ],
            "name": "_holder_list",
            "outputs": [
                {
                    "internalType": "address",
                    "name": "",
                    "type": "address"
                }
            ],
            "payable": false,
            "stateMutability": "view",
            "type": "function"
        },
        {
            "constant": true,
            "inputs": [],
            "name": "_manager",
            "outputs": [
                {
                    "internalType": "address",
                    "name": "",
                    "type": "address"
                }
            ],
            "payable": false,
            "stateMutability": "view",
            "type": "function"
        },
        {
            "constant": true,
            "inputs": [],
            "name": "_min_rate_to_pass_dl",
            "outputs": [
                {
                    "internalType": "uint256",
                    "name": "",
                    "type": "uint256"
                }
            ],
            "payable": false,
            "stateMutability": "view",
            "type": "function"
        },
        {
            "constant": true,
            "inputs": [],
            "name": "_min_rate_to_pass_proposal",
            "outputs": [
                {
                    "internalType": "uint256",
                    "name": "",
                    "type": "uint256"
                }
            ],
            "payable": false,
            "stateMutability": "view",
            "type": "function"
        },
        {
            "constant": true,
            "inputs": [],
            "name": "_min_rate_to_pass_request",
            "outputs": [
                {
                    "internalType": "uint256",
                    "name": "",
                    "type": "uint256"
                }
            ],
            "payable": false,
            "stateMutability": "view",
            "type": "function"
        },
        {
            "constant": true,
            "inputs": [],
            "name": "_num_proposals",
            "outputs": [
                {
                    "internalType": "uint256",
                    "name": "",
                    "type": "uint256"
                }
            ],
            "payable": false,
            "stateMutability": "view",
            "type": "function"
        },
        {
            "constant": true,
            "inputs": [],
            "name": "_price",
            "outputs": [
                {
                    "internalType": "uint256",
                    "name": "",
                    "type": "uint256"
                }
            ],
            "payable": false,
            "stateMutability": "view",
            "type": "function"
        },
        {
            "constant": true,
            "inputs": [],
            "name": "_project_meta",
            "outputs": [
                {
                    "internalType": "string",
                    "name": "",
                    "type": "string"
                }
            ],
            "payable": false,
            "stateMutability": "view",
            "type": "function"
        },
        {
            "constant": true,
            "inputs": [
                {
                    "internalType": "uint256",
                    "name": "",
                    "type": "uint256"
                }
            ],
            "name": "_proposals",
            "outputs": [
                {
                    "internalType": "string",
                    "name": "_proposal_meta",
                    "type": "string"
                },
                {
                    "internalType": "uint256",
                    "name": "_proposed_amount",
                    "type": "uint256"
                },
                {
                    "internalType": "bool",
                    "name": "_approved",
                    "type": "bool"
                },
                {
                    "internalType": "bool",
                    "name": "_rejected",
                    "type": "bool"
                },
                {
                    "internalType": "bool",
                    "name": "_released",
                    "type": "bool"
                },
                {
                    "internalType": "uint256",
                    "name": "_tot_approved_vote_power",
                    "type": "uint256"
                },
                {
                    "internalType": "uint256",
                    "name": "_tot_rejected_vote_power",
                    "type": "uint256"
                },
                {
                    "internalType": "uint256",
                    "name": "_tot_vote_power_at_termination",
                    "type": "uint256"
                },
                {
                    "internalType": "uint256",
                    "name": "_deadline",
                    "type": "uint256"
                },
                {
                    "internalType": "uint256",
                    "name": "_num_payment_requests",
                    "type": "uint256"
                }
            ],
            "payable": false,
            "stateMutability": "view",
            "type": "function"
        },
        {
            "constant": true,
            "inputs": [],
            "name": "_source_token",
            "outputs": [
                {
                    "internalType": "address",
                    "name": "",
                    "type": "address"
                }
            ],
            "payable": false,
            "stateMutability": "view",
            "type": "function"
        },
        {
            "constant": true,
            "inputs": [
                {
                    "internalType": "address",
                    "name": "",
                    "type": "address"
                }
            ],
            "name": "_stake_holders",
            "outputs": [
                {
                    "internalType": "uint256",
                    "name": "_source_contribution",
                    "type": "uint256"
                },
                {
                    "internalType": "uint256",
                    "name": "_target_contribution",
                    "type": "uint256"
                }
            ],
            "payable": false,
            "stateMutability": "view",
            "type": "function"
        },
        {
            "constant": true,
            "inputs": [],
            "name": "_target_token",
            "outputs": [
                {
                    "internalType": "address",
                    "name": "",
                    "type": "address"
                }
            ],
            "payable": false,
            "stateMutability": "view",
            "type": "function"
        },
        {
            "constant": true,
            "inputs": [],
            "name": "_tot_source_contribution",
            "outputs": [
                {
                    "internalType": "uint256",
                    "name": "",
                    "type": "uint256"
                }
            ],
            "payable": false,
            "stateMutability": "view",
            "type": "function"
        },
        {
            "constant": true,
            "inputs": [],
            "name": "_tot_source_locked",
            "outputs": [
                {
                    "internalType": "uint256",
                    "name": "",
                    "type": "uint256"
                }
            ],
            "payable": false,
            "stateMutability": "view",
            "type": "function"
        },
        {
            "constant": true,
            "inputs": [],
            "name": "_tot_target_contribution",
            "outputs": [
                {
                    "internalType": "uint256",
                    "name": "",
                    "type": "uint256"
                }
            ],
            "payable": false,
            "stateMutability": "view",
            "type": "function"
        },
        {
            "constant": true,
            "inputs": [],
            "name": "_tot_target_locked",
            "outputs": [
                {
                    "internalType": "uint256",
                    "name": "",
                    "type": "uint256"
                }
            ],
            "payable": false,
            "stateMutability": "view",
            "type": "function"
        },
        {
            "constant": false,
            "inputs": [
                {
                    "internalType": "uint256",
                    "name": "index",
                    "type": "uint256"
                },
                {
                    "internalType": "uint256",
                    "name": "idx",
                    "type": "uint256"
                },
                {
                    "internalType": "string",
                    "name": "approval_meta",
                    "type": "string"
                }
            ],
            "name": "approve_payment",
            "outputs": [],
            "payable": false,
            "stateMutability": "nonpayable",
            "type": "function"
        },
        {
            "constant": false,
            "inputs": [
                {
                    "internalType": "uint256",
                    "name": "index",
                    "type": "uint256"
                },
                {
                    "internalType": "string",
                    "name": "approval_meta",
                    "type": "string"
                }
            ],
            "name": "approve_proposal",
            "outputs": [],
            "payable": false,
            "stateMutability": "nonpayable",
            "type": "function"
        },
        {
            "constant": false,
            "inputs": [
                {
                    "internalType": "uint256",
                    "name": "index",
                    "type": "uint256"
                },
                {
                    "internalType": "uint256",
                    "name": "idx",
                    "type": "uint256"
                }
            ],
            "name": "check_payment",
            "outputs": [
                {
                    "internalType": "bool",
                    "name": "",
                    "type": "bool"
                }
            ],
            "payable": false,
            "stateMutability": "nonpayable",
            "type": "function"
        },
        {
            "constant": false,
            "inputs": [
                {
                    "internalType": "uint256",
                    "name": "index",
                    "type": "uint256"
                }
            ],
            "name": "check_proposal",
            "outputs": [
                {
                    "internalType": "bool",
                    "name": "",
                    "type": "bool"
                }
            ],
            "payable": false,
            "stateMutability": "nonpayable",
            "type": "function"
        },
        {
            "constant": false,
            "inputs": [
                {
                    "internalType": "address",
                    "name": "token",
                    "type": "address"
                },
                {
                    "internalType": "uint256",
                    "name": "amount",
                    "type": "uint256"
                }
            ],
            "name": "deposit",
            "outputs": [],
            "payable": false,
            "stateMutability": "nonpayable",
            "type": "function"
        },
        {
            "constant": true,
            "inputs": [
                {
                    "internalType": "uint256",
                    "name": "index",
                    "type": "uint256"
                },
                {
                    "internalType": "address",
                    "name": "voter",
                    "type": "address"
                }
            ],
            "name": "get_proposal_voter_info",
            "outputs": [
                {
                    "internalType": "bool",
                    "name": "",
                    "type": "bool"
                },
                {
                    "internalType": "bool",
                    "name": "",
                    "type": "bool"
                },
                {
                    "internalType": "uint256",
                    "name": "",
                    "type": "uint256"
                },
                {
                    "internalType": "uint256",
                    "name": "",
                    "type": "uint256"
                },
                {
                    "internalType": "string",
                    "name": "",
                    "type": "string"
                },
                {
                    "internalType": "string",
                    "name": "",
                    "type": "string"
                }
            ],
            "payable": false,
            "stateMutability": "view",
            "type": "function"
        },
        {
            "constant": true,
            "inputs": [
                {
                    "internalType": "uint256",
                    "name": "index",
                    "type": "uint256"
                },
                {
                    "internalType": "uint256",
                    "name": "idx",
                    "type": "uint256"
                }
            ],
            "name": "get_request_info",
            "outputs": [
                {
                    "internalType": "address",
                    "name": "",
                    "type": "address"
                },
                {
                    "internalType": "string",
                    "name": "",
                    "type": "string"
                },
                {
                    "internalType": "bool",
                    "name": "",
                    "type": "bool"
                },
                {
                    "internalType": "bool",
                    "name": "",
                    "type": "bool"
                },
                {
                    "internalType": "uint256",
                    "name": "",
                    "type": "uint256"
                },
                {
                    "internalType": "uint256",
                    "name": "",
                    "type": "uint256"
                },
                {
                    "internalType": "uint256",
                    "name": "",
                    "type": "uint256"
                }
            ],
            "payable": false,
            "stateMutability": "view",
            "type": "function"
        },
        {
            "constant": true,
            "inputs": [
                {
                    "internalType": "uint256",
                    "name": "index",
                    "type": "uint256"
                },
                {
                    "internalType": "uint256",
                    "name": "idx",
                    "type": "uint256"
                },
                {
                    "internalType": "address",
                    "name": "voter",
                    "type": "address"
                }
            ],
            "name": "get_request_voter_info",
            "outputs": [
                {
                    "internalType": "bool",
                    "name": "",
                    "type": "bool"
                },
                {
                    "internalType": "bool",
                    "name": "",
                    "type": "bool"
                },
                {
                    "internalType": "uint256",
                    "name": "",
                    "type": "uint256"
                },
                {
                    "internalType": "uint256",
                    "name": "",
                    "type": "uint256"
                },
                {
                    "internalType": "string",
                    "name": "",
                    "type": "string"
                },
                {
                    "internalType": "string",
                    "name": "",
                    "type": "string"
                }
            ],
            "payable": false,
            "stateMutability": "view",
            "type": "function"
        },
        {
            "constant": false,
            "inputs": [
                {
                    "internalType": "address",
                    "name": "source_token",
                    "type": "address"
                },
                {
                    "internalType": "address",
                    "name": "target_token",
                    "type": "address"
                },
                {
                    "internalType": "uint256",
                    "name": "price",
                    "type": "uint256"
                },
                {
                    "internalType": "uint256",
                    "name": "min_rate_to_pass_proposal",
                    "type": "uint256"
                },
                {
                    "internalType": "uint256",
                    "name": "min_rate_to_pass_request",
                    "type": "uint256"
                },
                {
                    "internalType": "uint256",
                    "name": "commission_rate",
                    "type": "uint256"
                },
                {
                    "internalType": "string",
                    "name": "project_meta",
                    "type": "string"
                }
            ],
            "name": "initiate",
            "outputs": [],
            "payable": false,
            "stateMutability": "nonpayable",
            "type": "function"
        },
        {
            "constant": false,
            "inputs": [
                {
                    "internalType": "string",
                    "name": "proposal_meta",
                    "type": "string"
                },
                {
                    "internalType": "uint256",
                    "name": "amount_target_token",
                    "type": "uint256"
                },
                {
                    "internalType": "uint256",
                    "name": "deadline",
                    "type": "uint256"
                }
            ],
            "name": "propose",
            "outputs": [],
            "payable": false,
            "stateMutability": "nonpayable",
            "type": "function"
        },
        {
            "constant": false,
            "inputs": [
                {
                    "internalType": "uint256",
                    "name": "index",
                    "type": "uint256"
                },
                {
                    "internalType": "uint256",
                    "name": "idx",
                    "type": "uint256"
                },
                {
                    "internalType": "string",
                    "name": "reject_meta",
                    "type": "string"
                }
            ],
            "name": "reject_payment",
            "outputs": [],
            "payable": false,
            "stateMutability": "nonpayable",
            "type": "function"
        },
        {
            "constant": false,
            "inputs": [
                {
                    "internalType": "uint256",
                    "name": "index",
                    "type": "uint256"
                },
                {
                    "internalType": "string",
                    "name": "reject_meta",
                    "type": "string"
                }
            ],
            "name": "reject_proposal",
            "outputs": [],
            "payable": false,
            "stateMutability": "nonpayable",
            "type": "function"
        },
        {
            "constant": false,
            "inputs": [
                {
                    "internalType": "uint256",
                    "name": "index",
                    "type": "uint256"
                },
                {
                    "internalType": "uint256",
                    "name": "idx",
                    "type": "uint256"
                },
                {
                    "internalType": "uint256",
                    "name": "deadline",
                    "type": "uint256"
                },
                {
                    "internalType": "string",
                    "name": "payment_meta",
                    "type": "string"
                }
            ],
            "name": "request_payment",
            "outputs": [],
            "payable": false,
            "stateMutability": "nonpayable",
            "type": "function"
        },
        {
            "constant": false,
            "inputs": [
                {
                    "internalType": "uint256",
                    "name": "source_amount",
                    "type": "uint256"
                },
                {
                    "internalType": "uint256",
                    "name": "target_amount",
                    "type": "uint256"
                }
            ],
            "name": "withdraw",
            "outputs": [],
            "payable": false,
            "stateMutability": "nonpayable",
            "type": "function"
        }
    ],
    "bytecode": "0x608060405234801561001057600080fd5b50612c66806100206000396000f3fe608060405234801561001057600080fd5b50600436106101e55760003560e01c8063689b15fe1161010f578063c4a90195116100a2578063ea991cd511610071578063ea991cd514610942578063ec9c1094146109c5578063f0329f6b14610a41578063fc022f5f14610a49576101e5565b8063c4a9019514610892578063c690d1b0146108b5578063d37232b214610932578063e1847ebd1461093a576101e5565b806390f4ebf6116100de57806390f4ebf6146107d557806391702c76146107dd5780639342584714610859578063a788da7b1461088a576101e5565b8063689b15fe146107065780637976d365146107325780637adaf4091461073a57806390d0b59e146107cd576101e5565b806332053a7a1161018757806349fc3b1e1161015657806349fc3b1e1461064057806352cc1703146106b757806355ec494b146106f6578063616691c5146106fe576101e5565b806332053a7a146105b05780633f66b1c5146105e9578063441a3e70146105f157806347e7ef2414610614576101e5565b806316cb3b20116101c357806316cb3b20146104a15780631a03f3df14610518578063235b6ea1146105325780632aa77c4c1461053a576101e5565b80630810e830146101ea5780630a4948401461028d57806310fea8a01461036d575b600080fd5b61028b600480360360e081101561020057600080fd5b6001600160a01b03823581169260208101359091169160408201359160608101359160808201359160a08101359181019060e0810160c082013564010000000081111561024c57600080fd5b82018360208201111561025e57600080fd5b8035906020019184600183028401116401000000008311171561028057600080fd5b509092509050610a51565b005b6102aa600480360360208110156102a357600080fd5b5035610b8f565b60405180806020018b81526020018a151515158152602001891515151581526020018815151515815260200187815260200186815260200185815260200184815260200183815260200182810382528c818151815260200191508051906020019080838360005b83811015610329578181015183820152602001610311565b50505050905090810190601f1680156103565780820380516001836020036101000a031916815260200191505b509b50505050505050505050505060405180910390f35b61039f6004803603606081101561038357600080fd5b50803590602081013590604001356001600160a01b0316610c6e565b6040518087151515158152602001861515151581526020018581526020018481526020018060200180602001838103835285818151815260200191508051906020019080838360005b838110156104005781810151838201526020016103e8565b50505050905090810190601f16801561042d5780820380516001836020036101000a031916815260200191505b50838103825284518152845160209182019186019080838360005b83811015610460578181015183820152602001610448565b50505050905090810190601f16801561048d5780820380516001836020036101000a031916815260200191505b509850505050505050505060405180910390f35b61028b600480360360408110156104b757600080fd5b813591908101906040810160208201356401000000008111156104d957600080fd5b8201836020820111156104eb57600080fd5b8035906020019184600183028401116401000000008311171561050d57600080fd5b509092509050610e1e565b610520610fbb565b60408051918252519081900360200190f35b610520610fc1565b61028b6004803603606081101561055057600080fd5b81019060208101813564010000000081111561056b57600080fd5b82018360208201111561057d57600080fd5b8035906020019184600183028401116401000000008311171561059f57600080fd5b919350915080359060200135610fc7565b6105cd600480360360208110156105c657600080fd5b50356110b9565b604080516001600160a01b039092168252519081900360200190f35b6105cd6110e0565b61028b6004803603604081101561060757600080fd5b50803590602001356110ef565b61028b6004803603604081101561062a57600080fd5b506001600160a01b0381351690602001356113b2565b61028b6004803603604081101561065657600080fd5b8135919081019060408101602082013564010000000081111561067857600080fd5b82018360208201111561068a57600080fd5b803590602001918460018302840111640100000000831117156106ac57600080fd5b509092509050611684565b6106dd600480360360208110156106cd57600080fd5b50356001600160a01b0316611821565b6040805192835260208301919091528051918290030190f35b61052061183a565b6105cd611840565b61039f6004803603604081101561071c57600080fd5b50803590602001356001600160a01b031661184f565b6105206119f2565b61075d6004803603604081101561075057600080fd5b50803590602001356119f8565b604080516001600160a01b03891681528615159181019190915284151560608201526080810184905260a0810183905260c0810182905260e0602080830182815289519284019290925288516101008401918a019080838360008315610460578181015183820152602001610448565b610520611b01565b610520611b07565b61028b600480360360608110156107f357600080fd5b81359160208101359181019060608101604082013564010000000081111561081a57600080fd5b82018360208201111561082c57600080fd5b8035906020019184600183028401116401000000008311171561084e57600080fd5b509092509050611b0d565b6108766004803603602081101561086f57600080fd5b5035611bf3565b604080519115158252519081900360200190f35b610520611c3e565b610876600480360360408110156108a857600080fd5b5080359060200135611c44565b6108bd611c8a565b6040805160208082528351818301528351919283929083019185019080838360005b838110156108f75781810151838201526020016108df565b50505050905090810190601f1680156109245780820380516001836020036101000a031916815260200191505b509250505060405180910390f35b610520611d18565b610520611d1e565b61028b6004803603608081101561095857600080fd5b8135916020810135916040820135919081019060808101606082013564010000000081111561098657600080fd5b82018360208201111561099857600080fd5b803590602001918460018302840111640100000000831117156109ba57600080fd5b509092509050611d24565b61028b600480360360608110156109db57600080fd5b813591602081013591810190606081016040820135640100000000811115610a0257600080fd5b820183602082011115610a1457600080fd5b80359060200191846001830284011164010000000083111715610a3657600080fd5b509092509050611e02565b6105cd611ee8565b610520611ef7565b6000546001600160a01b031615610aaf576040805162461bcd60e51b815260206004820152601a60248201527f50726f6a65637420616c726561647920696e697469617465642e000000000000604482015290519081900360640190fd5b600080543373ffffffffffffffffffffffffffffffffffffffff19918216179091556001805482166001600160a01b038b811691909117909155600280549092169089161790556003869055600485905560058490556007839055610b16600c8383612b27565b506000600a819055600b556032600655604080516001600160a01b03808b16825289166020820152808201889052606081018790526080810186905260a0810185905290517f9cf5961a85c7f8e7a338e8a65f5b28ec17985fa771ab0c7bb93eb86b76cfec589181900360c00190a15050505050505050565b60106020908152600091825260409182902080548351601f60026000196101006001861615020190931692909204918201849004840281018401909452808452909291839190830182828015610c265780601f10610bfb57610100808354040283529160200191610c26565b820191906000526020600020905b815481529060010190602001808311610c0957829003601f168201915b50505050600183015460028401546009850154600a860154600b870154600c880154600d909801549697949660ff80861697506101008604811696620100009096041694908a565b6000838152601060209081526040808320858452600e0182528083206001600160a01b0385168452600381018352818420546004820184528285205460058301855283862054600684018652848720546007850187528588206008860188528689208154885160026101006001841615026000190190921691909104601f81018b90048b0282018b019099528881528a998a998a996060998a99919860ff91821698919092169691959094919390928491830182828015610d705780601f10610d4557610100808354040283529160200191610d70565b820191906000526020600020905b815481529060010190602001808311610d5357829003601f168201915b5050845460408051602060026001851615610100026000190190941693909304601f810184900484028201840190925281815295975086945092508401905082828015610dfe5780601f10610dd357610100808354040283529160200191610dfe565b820191906000526020600020905b815481529060010190602001808311610de157829003601f168201915b505050505090509650965096509650965096505093975093979195509350565b82600f548110610e75576040805162461bcd60e51b815260206004820152601e60248201527f766f746520666f7220616e20756e657869737465642070726f706f73616c0000604482015290519081900360640190fd5b6000818152601060205260409020600281015460ff16158015610ea257506002810154610100900460ff16155b610eab57600080fd5b33600090815260038201602052604090205460ff1615610eca57600080fd5b33600090815260048201602052604090205460ff1615610ee957600080fd5b6000858152601060209081526040808320338452600381018352818420805460ff1916600117905560078101909252909120610f26908686612b27565b506000610f3233611efd565b33600090815260058401602052604090208190556009830154909150610f5e908263ffffffff611f4816565b6009830155610f6c87611fa9565b151560011415610f7f57610f7f8761206b565b6040805188815290517f38f09256e3041474c7da0c3b395eb26f839ed1e6f79bc56edb004a7ea8e7959d9181900360200190a150505050505050565b600b5481565b60035481565b6000546001600160a01b03163314611026576040805162461bcd60e51b815260206004820152601860248201527f6f6e6c79206d616e616765722063616e2070726f706f73650000000000000000604482015290519081900360640190fd5b60095482111561103557600080fd5b600f546000908152601060205260409020611051818686612b27565b506001808201849055600c8201839055600f546110739163ffffffff611f4816565b600f819055604080519182526020820185905280517fe6aa0ab9b64da83aa518c7c2647344318a7ee97902d35125f40be55e2ce2176e9281900390910190a15050505050565b600d81815481106110c657fe5b6000918252602090912001546001600160a01b0316905081565b6002546001600160a01b031681565b600854600090611105908463ffffffff61212916565b9050600061111e8360095461212990919063ffffffff16565b9050818410801561112e57508083105b61117f576040805162461bcd60e51b815260206004820152601e60248201527f496e73756666696369656e742066756e6420666f722077697468647261770000604482015290519081900360640190fd5b600354611192838363ffffffff61216b16565b10156111e5576040805162461bcd60e51b815260206004820152601c60248201527f766f74652062616c616e636520686173206265656e2062726f6b656e00000000604482015290519081900360640190fd5b336000908152600e6020526040902080548511801590611209575080600101548411155b6112445760405162461bcd60e51b8152600401808060200182810382526026815260200180612bc06026913960400191505060405180910390fd5b6001546040805163a9059cbb60e01b81523360048201526024810188905290516001600160a01b039092169163a9059cbb916044808201926020929091908290030181600087803b15801561129857600080fd5b505af11580156112ac573d6000803e3d6000fd5b505050506040513d60208110156112c257600080fd5b50506002546040805163a9059cbb60e01b81523360048201526024810187905290516001600160a01b039092169163a9059cbb916044808201926020929091908290030181600087803b15801561131857600080fd5b505af115801561132c573d6000803e3d6000fd5b505050506040513d602081101561134257600080fd5b5050600854611357908663ffffffff61212916565b60085560095461136d908563ffffffff61212916565b600955604080518681526020810186905281517f56ca301a9219608c91e7bcee90e083c19671d2cdcc96752c7af291cee5f9c8c8929181900390910190a15050505050565b600d54600a10156113c257600080fd5b6001546001600160a01b03838116911614806113eb57506002546001600160a01b038381169116145b61143c576040805162461bcd60e51b815260206004820152601260248201527f746f6b656e20756e7265636f676e697a65640000000000000000000000000000604482015290519081900360640190fd5b604080517f23b872dd0000000000000000000000000000000000000000000000000000000081523360048201523060248201526044810183905290516001600160a01b038416916323b872dd9160648083019260209291908290030181600087803b1580156114aa57600080fd5b505af11580156114be573d6000803e3d6000fd5b505050506040513d60208110156114d457600080fd5b5050336000908152600e6020526040902080541580156114f657506001810154155b1561154b57600d80546001810182556000919091527fd7b6990105719101dabeb77144f2a3385c8033acd3af97e9423a695e81ad1eb501805473ffffffffffffffffffffffffffffffffffffffff1916331790555b6001546001600160a01b0384811691161415611590578054611573908363ffffffff611f4816565b8155600854611588908363ffffffff611f4816565b60085561163b565b6008546115cd6115ad6003546009546121ad90919063ffffffff16565b6003546115c190869063ffffffff6121ad16565b9063ffffffff611f4816565b111561160a5760405162461bcd60e51b815260040180806020018281038252602b815260200180612c07602b913960400191505060405180910390fd5b600181015461161f908363ffffffff611f4816565b6001820155600954611637908363ffffffff611f4816565b6009555b604080516001600160a01b03851681526020810184905281517fe1fffcc4923d04b559f4d29a8bfc6cda04eb5b0d3c460751c2402c5c5cc9109c929181900390910190a1505050565b82600f5481106116db576040805162461bcd60e51b815260206004820152601e60248201527f766f746520666f7220616e20756e657869737465642070726f706f73616c0000604482015290519081900360640190fd5b6000818152601060205260409020600281015460ff1615801561170857506002810154610100900460ff16155b61171157600080fd5b33600090815260038201602052604090205460ff161561173057600080fd5b33600090815260048201602052604090205460ff161561174f57600080fd5b6000858152601060209081526040808320338452600481018352818420805460ff191660011790556008810190925290912061178c908686612b27565b50600061179833611efd565b3360009081526006840160205260409020819055600a8301549091506117c4908263ffffffff611f4816565b600a8301556117d287612206565b1515600114156117e5576117e5876122af565b6040805188815290517f0e37f9e6bfc375c19a26e26e6509a15f42c0bf9b6912c3f3334e92a7b2937b159181900360200190a150505050505050565b600e602052600090815260409020805460019091015482565b60075481565b6001546001600160a01b031681565b60008281526010602090815260408083206001600160a01b0385168452600381018352818420546004820184528285205460058301855283862054600684018652848720546007850187528588206008860188528689208154885160026101006001841615026000190190921691909104601f81018b90048b0282018b019099528881528a998a998a996060998a99919860ff918216989190921696919590949193909284918301828280156119465780601f1061191b57610100808354040283529160200191611946565b820191906000526020600020905b81548152906001019060200180831161192957829003601f168201915b5050845460408051602060026001851615610100026000190190941693909304601f8101849004840282018401909252818152959750869450925084019050828280156119d45780601f106119a9576101008083540402835291602001916119d4565b820191906000526020600020905b8154815290600101906020018083116119b757829003601f168201915b50505050509050965096509650965096509650509295509295509295565b60055481565b6000828152601060209081526040808320848452600e01825280832080546002808301546009840154600a850154600b860154600180880180548a516101009382161584026000190190911697909704601f81018c90048c0288018c01909a5289875260609a8c9a8b9a8b9a8b9a8b9a92996001600160a01b0390921698959760ff8085169890940490931695919491939091889190830182828015611adf5780601f10611ab457610100808354040283529160200191611adf565b820191906000526020600020905b815481529060010190602001808311611ac257829003601f168201915b5050505050955097509750975097509750975097505092959891949750929550565b600a5481565b60045481565b6000848152601060209081526040808320868452600e018252808320338452600481018352818420805460ff1916600117905560088101909252909120611b55908484612b27565b506000611b6133611efd565b3360009081526006840160205260409020819055600a830154909150611b8d908263ffffffff611f4816565b600a830155611b9c8686612324565b151560011415611bb057611bb086866123e8565b604080518781526020810187905281517f775a99a23304d411fc2b1a8eeb5d5fb63131e1eed97d0fe491aa4d52184b58f9929181900390910190a1505050505050565b6000611bfe82611fa9565b151560011415611c1957611c118261206b565b506001611c39565b611c2282612206565b151560011415611c3557611c11826122af565b5060005b919050565b60095481565b6000611c508383612474565b15611c6757611c5f838361251b565b506001611c84565b611c718383612324565b15611c8057611c5f83836123e8565b5060005b92915050565b600c805460408051602060026001851615610100026000190190941693909304601f81018490048402820184019092528181529291830182828015611d105780601f10611ce557610100808354040283529160200191611d10565b820191906000526020600020905b815481529060010190602001808311611cf357829003601f168201915b505050505081565b60085481565b60065481565b84600f548110611d3357600080fd5b6000818152601060205260409020600281015460ff1615156001148015611d655750600281015462010000900460ff16155b611d6e57600080fd5b6000878152601060209081526040808320898452600e019091529020611d98600182018686612b27565b50805473ffffffffffffffffffffffffffffffffffffffff191633178155600c8101869055604080518981526020810189905281517f3d2e9116ecfbb0dcbbd0c5cbdb8e00565b81c852f3ae02b4c1fc5d484236b48a929181900390910190a15050505050505050565b6000848152601060209081526040808320868452600e018252808320338452600381018352818420805460ff1916600117905560078101909252909120611e4a908484612b27565b506000611e5633611efd565b33600090815260058401602052604090208190556009830154909150611e82908263ffffffff611f4816565b6009830155611e918686612474565b151560011415611ea557611ea5868661251b565b604080518781526020810187905281517f0af3c87cdae21fd9b8bc75f22c55707916745701dc21516dd93d31ebb858bb0a929181900390910190a1505050505050565b6000546001600160a01b031681565b600f5481565b6001600160a01b0381166000908152600e6020526040812080546003546001830154611f4091611f33919063ffffffff6121ad16565b829063ffffffff611f4816565b949350505050565b600082820183811015611fa2576040805162461bcd60e51b815260206004820152601b60248201527f536166654d6174683a206164646974696f6e206f766572666c6f770000000000604482015290519081900360640190fd5b9392505050565b60008181526010602052604081206003546009548391611fe191611fd29163ffffffff6121ad16565b6008549063ffffffff611f4816565b60098301546004549192509061200e8361200284606463ffffffff6121ad16565b9063ffffffff61216b16565b1061201f5760019350505050611c39565b612027612a26565b83600c015410801561204f575060065461204c8361200284606463ffffffff6121ad16565b10155b156120605760019350505050611c39565b506000949350505050565b600081815260106020526040902060028101805460ff191660011790556003546009546120a291611fd2919063ffffffff6121ad16565b600b80830191909155600182015490546120c19163ffffffff611f4816565b600b5560035460018201546120ef916120e0919063ffffffff6121ad16565b600a549063ffffffff611f4816565b600a556040805183815290517f28ec9e38ba73636ceb2f6c1574136f83bd46284a3c74734b711bf45e12f8d9299181900360200190a15050565b6000611fa283836040518060400160405280601e81526020017f536166654d6174683a207375627472616374696f6e206f766572666c6f770000815250612a2b565b6000611fa283836040518060400160405280601a81526020017f536166654d6174683a206469766973696f6e206279207a65726f000000000000815250612ac2565b6000826121bc57506000611c84565b828202828482816121c957fe5b0414611fa25760405162461bcd60e51b8152600401808060200182810382526021815260200180612be66021913960400191505060405180910390fd5b6000818152601060205260408120600354600954839161222f91611fd29163ffffffff6121ad16565b9050600082600a01549050600454606403612258836120026064856121ad90919063ffffffff16565b111561226a5760019350505050611c39565b612272612a26565b83600c015410801561204f575060065460640361229d836120026064856121ad90919063ffffffff16565b11156120605760019350505050611c39565b600081815260106020526040902060028101805461ff0019166101001790556003546009546122e891611fd2919063ffffffff6121ad16565b600b8201556040805183815290517fd92fba445edb3153b571e6df782d7a66fd0ce668519273670820ee3a86da0ef49181900360200190a15050565b6000828152601060209081526040808320848452600e019091528120600354600954839161235b91611fd29163ffffffff6121ad16565b9050600082600a01549050600554606403612384836120026064856121ad90919063ffffffff16565b11156123965760019350505050611c84565b61239e612a26565b83600c01541080156123cb57506006546064036123c9836120026064856121ad90919063ffffffff16565b115b156123dc5760019350505050611c84565b50600095945050505050565b6000828152601060209081526040808320848452600e01909152902060028101805461ff00191661010017905560035460095461242f91611fd2919063ffffffff6121ad16565b600b820155604080518481526020810184905281517fa099e78478ae432876f0304a510a36b1191910aaf20cf582cd9dec451ea84620929181900390910190a1505050565b6000828152601060209081526040808320848452600e01909152812060035460095483916124ab91611fd29163ffffffff6121ad16565b6009830154600554919250906124cc8361200284606463ffffffff6121ad16565b106124dd5760019350505050611c84565b6124e5612a26565b83600c01541080156123cb575060065461250a8361200284606463ffffffff6121ad16565b106123dc5760019350505050611c84565b600082815260106020526040812060035460018201549192916125439163ffffffff6121ad16565b9050600082600101549050600061256d6064612002600754606403856121ad90919063ffffffff16565b9050600061258b6064612002600754876121ad90919063ffffffff16565b6000878152600e8701602090815260408083206001548154835163a9059cbb60e01b81526001600160a01b039182166004820152602481018890529351969750919591169363a9059cbb93604480850194919392918390030190829087803b1580156125f657600080fd5b505af115801561260a573d6000803e3d6000fd5b505050506040513d602081101561262057600080fd5b505060025481546040805163a9059cbb60e01b81526001600160a01b039283166004820152602481018790529051919092169163a9059cbb9160448083019260209291908290030181600087803b15801561267a57600080fd5b505af115801561268e573d6000803e3d6000fd5b505050506040513d60208110156126a457600080fd5b50600090505b600d54811015612982576000600e6000600d84815481106126c757fe5b60009182526020808320909101546001600160a01b03168352820192909252604001812060085481549193506127089161200290606463ffffffff6121ad16565b9050600061272a600954612002606486600101546121ad90919063ffffffff16565b905081156128405760006127496007548a6121ad90919063ffffffff16565b90506000612763612710612002848763ffffffff6121ad16565b600254600d80549293506001600160a01b039091169163a9059cbb91908990811061278a57fe5b6000918252602080832090910154604080517fffffffff0000000000000000000000000000000000000000000000000000000060e087901b1681526001600160a01b039092166004830152602482018790525160448083019491928390030190829087803b1580156127fb57600080fd5b505af115801561280f573d6000803e3d6000fd5b505050506040513d602081101561282557600080fd5b505084546064858d02049061283a9082612129565b86555050505b80156129775760006128606007546064038b6121ad90919063ffffffff16565b9050600061287a612710612002848663ffffffff6121ad16565b600154600d80549293506001600160a01b039091169163a9059cbb9190899081106128a157fe5b6000918252602080832090910154604080517fffffffff0000000000000000000000000000000000000000000000000000000060e087901b1681526001600160a01b039092166004830152602482018790525160448083019491928390030190829087803b15801561291257600080fd5b505af1158015612926573d6000803e3d6000fd5b505050506040513d602081101561293c57600080fd5b506000905061295660646120028d8763ffffffff6121ad16565b600187015490915061296e908263ffffffff61212916565b60018701555050505b5050506001016126aa565b5061299d611fd26003546009546121ad90919063ffffffff16565b600b8201556008546129b5908663ffffffff61212916565b6008556009546129cb908563ffffffff61212916565b60095560028601805462ff0000191662010000179055604080518981526020810189905281517fc8ef479acdbffd729d96117b951d1c3ee85d98ef42699aec806bc4f0b522461d929181900390910190a15050505050505050565b435b90565b60008184841115612aba5760405162461bcd60e51b81526004018080602001828103825283818151815260200191508051906020019080838360005b83811015612a7f578181015183820152602001612a67565b50505050905090810190601f168015612aac5780820380516001836020036101000a031916815260200191505b509250505060405180910390fd5b505050900390565b60008183612b115760405162461bcd60e51b8152602060048201818152835160248401528351909283926044909101919085019080838360008315612a7f578181015183820152602001612a67565b506000838581612b1d57fe5b0495945050505050565b828054600181600116156101000203166002900490600052602060002090601f016020900481019282601f10612b685782800160ff19823516178555612b95565b82800160010185558215612b95579182015b82811115612b95578235825591602001919060010190612b7a565b50612ba1929150612ba5565b5090565b612a2891905b80821115612ba15760008155600101612bab56fe596f7520646f6e2774206861766520656e6f7567682066756e6420746f207769746864726177536166654d6174683a206d756c7469706c69636174696f6e206f766572666c6f7763616e206e6f7420696e76657374206d6f7265207468616e20736f7572636520746f6b656e2076616c7565a265627a7a72315820f7429dc29970bf6bf640eb85cbcba00e397724fbfcb7c34e876b2385d9c5dbf364736f6c63430005100032",
    "linkReferences": {},
    "deployedLinkReferences": {}
}